:020000040800F2
:1000000000000120391C0008371C0008351C0008BE
:10001000351C0008351C0008351C000800000000D5
:10002000000000000000000000000000371C000875
:10003000371C000800000000371C0008AD01000854
:10004000351C0008351C0008351C0008351C00084C
:10005000351C0008351C0008351C0008351C00083C
:10006000351C0008351C0008351C0008351C00082C
:10007000351C0008351C0008351C0008351C00081C
:10008000351C0008351C0008351C0008351C00080C
:10009000351C0008351C0008351C0008351C0008FC
:1000A000351C0008351C0008351C0008351C0008EC
:1000B0008D020008351C0008351C0008351C00089E
:1000C000351C0008351C0008351C0008351C0008CC
:1000D000351C0008351C0008351C0008351C0008BC
:1000E000351C0008351C0008351C0008351C0008AC
:1000F000351C0008351C0008351C0008351C00089C
:10010000351C0008351C0008351C0008351C00088B
:10011000351C0008351C0008351C0008351C00087B
:10012000351C0008351C0008351C0008351C00086B
:10013000351C0008351C0008351C0008351C00085B
:10014000351C0008351C0008351C0008351C00084B
:10015000351C0008351C0008351C0008351C00083B
:10016000351C0008351C0008351C0008351C00082B
:10017000351C0008351C0008351C0008351C00081B
:10018000351C0008351C0008351C0008351C00080B
:10019000351C0008351C0008351C0008351C0008FB
:1001A000351C0008351C0008351C000880B400AF61
:1001B000044B1B680133034A136000BFBD465DF862
:1001C000047B70472000002080B500AF054801F097
:1001D00083FD042001F092FD01F0C4FD01F0B4FDA7
:1001E00000BF80BD2048010080B500AF0B4801F082
:1001F0006DFC4FF4C06001F059F940F2016001F06C
:1002000055F940F2026001F051F94FF4006001F03D
:100210004DF9FFF7D9FF00BF80BD00BF5023000894
:1002200080B485B000AF78600023FB6022E07B687B
:1002300058781549FA6813465B0013440B440133A0
:1002400002461A707B6818780F49FA6813465B00FB
:1002500013440B4402461A707B6898780A49FA687E
:1002600013465B0013440B44023302461A70FB68CA
:100270000133FB60FB68022BD9D900BF00BF1437E4
:10028000BD465DF8047B70470C00002080B500AFD0
:100290004FF080431B684FF0804243F0020313602D
:1002A000032000F036FB00F0ABFE0B4800F036FFF9
:1002B0000948FFF7B5FF094B1B68084A23F0010303
:1002C00013604FF080431B684FF0804223F002031D
:1002D000136000BF80BD00BF180000201000004068
:1002E00080B500AF1C2001F05DFD02211C2001F053
:1002F000A9FD0D4B01221A600C4B4FF42F621A60BE
:100300000B4B4FF47A721A600A4B1B68094A43F090
:10031000010313604FF080431B684FF0804243F0AD
:100320000103136000BF80BD24000040280000408E
:100330002C0000400C00004080B500AF4FF400538B
:1003400000220121094800F035FF4FF4004300224C
:100350000121064800F02EFF4FF4804300220121C6
:10036000024800F027FF00BF80BD00BF0008024028
:1003700080B483B000AF7860084611461A46034641
:10038000FB700B46BB7013467B707B68FA785A7023
:100390007B68BA781A707B687A789A7000BF0C37DD
:1003A000BD465DF8047B704780B500AFC0220421D4
:1003B000144800F03AFFC02300220221114800F047
:1003C000F9FEC023022201210E4800F013FF40F67F
:1003D000150001F06BF80C4800F058FF2A210A487C
:1003E00000F07EFF084800F084FF2321064800F05B
:1003F0008AFF0E21044800F08CFF034800F041FF03
:1004000000BF80BD000402400054004080B500AF32
:100410000023002200211048FFF7AAFF03220E4903
:100420000E4800F0A5F80023002200210A48FFF73B
:100430009FFF032208490A4800F09AF8002300228F
:1004400000210548FFF794FF03220349054800F007
:100450008FF800BF80BD00BF180000200C000020F6
:100460000F0000201200002080B584B000AF3B4692
:1004700010222021184600F0B8F83B460122094915
:10048000184600F021F90021074800F0BCFC3B466B
:100490000121184600F0B7FC00F0EAFB00BF10375E
:1004A000BD4680BD942200089C22000880B582B021
:1004B00000AF00237B6000233B60FFF795FEFFF752
:1004C00083FE142000F03CF800F05AFBFFF734FFE5
:1004D0004FF48041184800F057FEFFF785FEFFF704
:1004E00095FFFFF761FF00F055FD00F005FCFFF7F9
:1004F000BBFF40F6B83000F023F8FFF7F1FE4FF4F1
:1005000000510D4800F040FE0C4B1B697A689A427E
:1005100004D10A4B9B693A689A4207D0074B1B6982
:100520007B60064B9B693B6000F0C8FC4FF47A701F
:1005300000F006F8E3E700BF000802404800002092
:1005400080B485B000AF7860084B1B687A681344AC
:10055000FB6000BF054B1B68FA689A42FAD800BFDF
:1005600000BF1437BD465DF8047B704720000020B3
:1005700080B489B000AFF860B9607A60FB68BB6195
:10058000BB687B610023FB610AE07A69FB691A445E
:10059000B969FB690B4412781A70FB690133FB617E
:1005A000FA697B689A42F0D300BF00BF2437BD468A
:1005B0005DF8047B704780B485B000AF786000239D
:1005C000FB607B68BB6005E0FB680133FB60BB68D8
:1005D0000133BB60BB681B78002BF5D1FB68184664
:1005E0001437BD465DF8047B704780B487B000AF18
:1005F000F8600B467A60FB72FB683B6100237B610D
:1006000007E03A697B691344FA7A1A707B6901330F
:100610007B617A697B689A42F3D300BF00BF1C37C5
:10062000BD465DF8047B704780B48BB000AFF860C6
:10063000B9607A603B60BB68FB613B68002B01D00E
:100640001F4B00E01F4BBB61FB697B627A68FB6854
:10065000B3FBF2F101FB02F29B1ABA691A447B6AFE
:10066000591C796212781A707B68FA68B2FBF3F34E
:10067000FB60FB68002BE9D17B6A5A1E7A6200227C
:100680001A70FB693B620FE03B6A1B78FB757B6A63
:100690001A783B6A1A707B6AFA7D1A703B6A0133DA
:1006A0003B627B6A013B7B623A6A7B6A9A42EBD38C
:1006B000FB6918462C37BD465DF8047B704700BFC8
:1006C000A8220008BC2200080EB480B597B000AF85
:1006D00078607B687B6507F16803FB627B6E3B6536
:1006E000FEE03B6D1B78252B06D07B6D5A1C7A658E
:1006F0003A6D12781A70F0E03B6D01333B653B6D4B
:100700001B78252B00F0DD80252BC0F2E080782BB4
:1007100000F3DD80582BC0F2DA80583B202B00F22A
:10072000D68001A252F823F061080008CF08000823
:10073000CF080008CF080008CF080008CF0800083D
:10074000CF080008CF080008CF080008CF0800082D
:10075000CF080008A9080008D3070008CF08000840
:10076000CF080008CF080008CF080008CF0800080D
:10077000CF080008CF080008CF080008CF080008FD
:10078000CF080008CF080008CF080008CF080008ED
:10079000CF080008AD070008CF08000825080008AA
:1007A000CF080008CF08000861080008FB6A1A1D7E
:1007B000FA621B68FB6407E0FA6C531CFB647B6DF8
:1007C000591C796512781A70FB6C1B78002BF3D1D9
:1007D00083E0FB6A1A1DFA621B68BB64BB6C002BCA
:1007E00007DA7B6D5A1C7A652D221A70BB6C5B424E
:1007F000BB64B86C07F1200100230A22FFF714FF45
:1008000007F120037B6408E07B6D5A1C7A657A6CE3
:1008100012781A707B6C01337B647B6C1B78002B25
:10082000F2D15AE0FB6A1A1DFA621B68BB6307F13A
:10083000140100230A22B86BFFF7F6FE07F1140338
:100840003B6408E07B6D5A1C7A653A6C12781A702A
:100850003B6C01333B643B6C1B78002BF2D13CE0DA
:10086000FB6A1A1DFA621B683B633B6D1B78582BB1
:100870000CBF01230023DBB207F108011022386B03
:10088000FFF7D2FE07F10803FB6308E07B6D5A1CFB
:100890007A65FA6B12781A70FB6B0133FB63FB6BA2
:1008A0001B78002BF2D118E0FB6A1A1DFA621B6854
:1008B00087F837307B6D5A1C7A6597F837201A70A5
:1008C0000BE07B6D5A1C7A6525221A7005E07B6D62
:1008D0005A1C7A653F221A7000BF3B6D01333B659D
:1008E0003B6D1B78002B7FF4FCAE7B6D00221A70F1
:1008F0007A6D7B68D31A18465C37BD46BDE88040E8
:1009000003B07047013FFDD170476F6957406F6179
:10091000F8BDF8B51F4D204F80B403214843002196
:100920004FF480444BF6FF7380BC7E5880B440B4D3
:1009300008220727FFF7E6FFC04602E00B27FFF774
:10094000E1FF013A6F6927436F61012740BC40B462
:10095000D6403740002F07D01B27FFF7D3FFC046F4
:100960006F691F406F610CE0C0460A27FFF7CAFF9E
:100970006F691F406F611427C046FFF7C3FFC04671
:10098000C046002ADAD140BC01318142CCD180BCC2
:10099000F8BD0000000802400C00002080B483B0C5
:1009A00000AF78607B681A687B6842F001021A60C9
:1009B00000BF0C37BD465DF8047B704780B483B040
:1009C00000AF78607B681A687B6822F001021A60C9
:1009D00000BF0C37BD465DF8047B704780B483B020
:1009E00000AF0E4B1B689BB223F03F03FB80FB88DC
:1009F00043F00A039AB2094B1A604FF44043FB805C
:100A0000FB8843F01903FB80054AFB88136000BF95
:100A10000C37BD465DF8047B704700BF04540040AE
:100A20001C54004080B483B000AF0F4B1B6823F40C
:100A300070437B607B6843F420437B600A4A7B6899
:100A400013600A4B1B6823F07F437B607B6843F095
:100A500088437B60054A7B68136000BF0C37BD4646
:100A60005DF8047B704700BF000402402004024090
:100A700080B400AF034B00221A6000BFBD465DF892
:100A8000047B70472454004080B582B000AF034619
:100A9000FB710F211B4800F071FBFB7903F0010390
:100AA000002B03D00121174800F066FBFB7903F00F
:100AB0000203002B03D00221124800F05DFBFB79FA
:100AC00003F00403002B03D004210E4800F054FB74
:100AD000FB7903F00803002B03D00821094800F03C
:100AE0004BFB4FF48051084800F046FB0520FFF710
:100AF00027FD4FF48051044800F040FB00BF083749
:100B0000BD4680BD000002400004024080B584B0B4
:100B100000AF0346FB710B46BB7113467B717B79BB
:100B200003F00F03FB737B791B09BB73134B1B682B
:100B3000BA79002A02D04FF4005100E00021FA797E
:100B4000002A02D04FF4804200E000220A431146FE
:100B50000A4A0B431360BB7B1846FFF795FFFB7BEC
:100B60001846FFF791FF054B1B68044A23F4C04366
:100B7000136000BF1037BD4680BD00BF14040240A3
:100B800080B500AF0F23002201211E4800F012FBA8
:100B90000F23002200211B4800F02CFB4FF4E04300
:100BA00000220121184800F005FB4FF4E043002229
:100BB0000021154800F01EFB0320FFF765FF05200C
:100BC000FFF7BEFC0320FFF75FFF0520FFF7B8FC2F
:100BD0000320FFF759FF0520FFF7B2FC0220FFF7C3
:100BE00053FF0520FFF7ACFC282000F00FF80C2085
:100BF00000F00CF8062000F009F8012000F006F8DB
:100C000000BF80BD000002400004024080B582B0F9
:100C100000AF0346FB71FB791A4600210020FFF765
:100C200075FF00BF0837BD4680BD80B584B000AFFA
:100C30000346FB71FB7903F07F03FB73FB7B63F0DF
:100C40007F03DBB21846FFF7E1FF00BF1037BD4658
:100C500080BD80B582B000AF0346FB71FB791A46B8
:100C600000210120FFF752FF00BF0837BD4680BDBD
:100C700080B582B000AF0023FB711D4B1B7883F061
:100C80000103DBB2002B2ED10120FFF7BFFF0220B2
:100C9000FFF7BCFF09E0FB79164A12F8133018463B
:100CA000FFF7D7FFFB790133FB71FB790F2BF2D9EB
:100CB0004020FFF7BAFF0520FFF742FC0023FB713D
:100CC0000AE0FB790B4A5B0013445B781846FFF798
:100CD000C0FFFB790133FB71FB790F2BF1D9044B7A
:100CE00000221A7000E000BF0837BD4680BD00BF7B
:100CF000440000202400002080B500AF20222021E5
:100D00000348FFF772FC0120FFF780FF00BF80BDA2
:100D10002400002080B483B000AF0346FB710B4673
:100D2000BB7113467B71FB790F2B02D8BB79012B6A
:100D300001D9FF230BE0FA79BB79084952000A4434
:100D400013447A791A70064B01221A700023184650
:100D50000C37BD465DF8047B704700BF24000020BF
:100D60004400002080B400AF034B1B781846BD46FA
:100D70005DF8047B704700BF4400002080B584B05C
:100D800000AF03463960FB713868FFF714FC034677
:100D90007B737A7BFB791344FB73FB7B1F2B01D99D
:100DA0001F23FB73FB79BB7324E0BB7B0F2B0FD896
:100DB000BB7B03F00F03D8B2BA7BFB79D31A1A4678
:100DC0003B6813441B781A460021FFF7A3FF0EE08F
:100DD000BB7B03F00F03D8B2BA7BFB79D31A1A4658
:100DE0003B6813441B781A460121FFF793FFBB7B36
:100DF0000133BB73BA7BFB7B9A42D6D37B7B18460D
:100E00001037BD4680BD80B582B000AF78600B461C
:100E1000FB70FB78012B01D9FF230AE0FB78002B44
:100E200001D0102300E0002379681846FFF7A6FFE1
:100E3000002318460837BD4680BD000080B584B049
:100E400000AF87ED030AC7ED020A87ED011AD7ED5F
:100E5000037AF1EE677AD7ED010AB0EE670A01F086
:100E600091F8F0EE407A9FED047A67EE877AB0EE63
:100E7000670A1037BD4680BD9A99654280B584B037
:100E800000AF87ED030AC7ED020A87ED011AD7ED1F
:100E9000027AF1EE677AD7ED010AB0EE670A01F047
:100EA00071F8F0EE407A9FED047A67EE877AB0EE43
:100EB000670A1037BD4680BD9A99654280B588B0F3
:100EC00000AFFFF719FF3B46202200211846FFF72D
:100ED0008CFB124B1A693B4611491846FFF7F4FB8D
:100EE0003B4600211846FFF78EFF3B46202200219B
:100EF0001846FFF77AFB094B9A693B4609491846A1
:100F0000FFF7E2FB3B4601211846FFF77CFFFFF7A6
:100F1000AFFE00BF2037BD4680BD00BF48000020A7
:100F2000D0220008D822000880B586B002AF034660
:100F3000FB71FA1D0123019307F10F0300930123B5
:100F40006821044800F029FAFB7B18461037BD469B
:100F500080BD00BF0054004080B584B000AF0346A0
:100F6000FB710023FB81FB791846FFF7DDFF034689
:100F70001B02FB81FB790133DBB21846FFF7D4FF7C
:100F800003461A46FB891343FB81FB891846103739
:100F9000BD4680BD80B584B002AF6B23BB80752396
:100FA000FB71FA1D002301930023009301236821A4
:100FB000114800F0F2F901230193FB1D0093002377
:100FC000002268210C4800F0E8F93A1D0023019343
:100FD0000023009302236821074800F0DEF9642013
:100FE000FFF7AEFA202200210448FFF7FEFA00BF07
:100FF0000837BD4680BD00BF0054004048000020B7
:1010000080B500AF3B20FFF7A7FF03461AB2344B71
:10101000DA803D20FFF7A0FF03461AB2304B1A8159
:101020003F20FFF799FF03461AB22D4B5A812C4BF4
:10103000B3F9063007EE903AF8EEE77A284BB3F9A9
:10104000083007EE103AB8EEC77A254BB3F90A30EC
:1010500006EE903AF8EEE66AB0EE661AF0EE470A4F
:10106000B0EE670AFFF7EAFEF0EE407A1C4BC3EDE4
:10107000037A1B4BD3ED037AFDEEE77A17EE902A45
:10108000174B1A61164BB3F9063007EE903AF8EE9B
:10109000E77A134BB3F9083007EE103AB8EEC77A87
:1010A0000F4BB3F90A3006EE903AF8EEE66AB0EE6E
:1010B000661AF0EE470AB0EE670AFFF7DFFEF0EEC1
:1010C000407A074BC3ED057A054BD3ED057AFDEE6B
:1010D000E77A17EE902A024B9A6100BF80BD00BFED
:1010E0004800002080B487B000AFF860B9607A6033
:1010F0007B687B617A68FB689A4202DAFB687B61F5
:1011000005E07A68BB689A4201DDBB687B617B6958
:1011100018461C37BD465DF8047B704780B582B029
:1011200000AF7860134B1B6903F1A002114B9B6960
:1011300013441A46FF210020FFF7D4FF0346DAB21A
:101140007B685A707B6800221A700A4B1B6903F196
:10115000A002084B9B69D31A1A46FF210020FFF713
:10116000C1FF0346DAB27B689A7000BF0837BD46FC
:1011700080BD00BF48000020816170470904816183
:101180007047006908407047436901EA030221EA99
:10119000030141EA024181617047006980B27047F2
:1011A0004161704741F48033C361C161C361C36968
:1011B000C36970472DE9F0410568C46800264FF007
:1011C000030E43FA06F7FF070DD577000EFA07FC6A
:1011D00001FA07F825EA0C0524EA0C0402FA07F7DD
:1011E00048EA05053C430136102EEAD10560C4608B
:1011F000BDE8F081012941680CBF19439943F0B55E
:10120000416081680024032643FA04F5ED0707D501
:10121000650006FA05F721EA070102FA05F52943F8
:101220000134102CF0D18160F0BDF0B5066A456A3A
:1012300000234FF00F0C42FA03F4E70707D59C0098
:101240000CFA04F726EA070601FA04F426430133F0
:10125000082BF0D100234FF00F0C03F1080442FAE1
:1012600004F4E40707D59C000CFA04F725EA070507
:1012700001FA04F425430133082BEED106624562DE
:10128000F0BD036843F0010303607047036823F077
:10129000010303607047036843F480730360704781
:1012A000036843F4007303607047036823F400731A
:1012B00003607047490041F480418160704741F408
:1012C0000041816070474900C1607047C36843F0C6
:1012D0000103C3607047C36823F00103C360704714
:1012E000436823F03F039BB219434160704701619B
:1012F0007047C36943F40043C3617047C36923F473
:101300000043C3617047C36903F470430B43C36177
:1013100070470162704742EA4102D2B202617047EF
:101320000069C0B2704743680B434360704743682D
:1013300023EA010343607047036843F4806303605A
:101340007047036823F4806303607047036843F4C5
:10135000006303607047036823F400630360704711
:10136000C36919B923F48043C361704743F48043D0
:10137000FAE7436843F4006343607047436823F42B
:10138000006343607047436843F480534360704791
:10139000436823F48053436070472DE9F0411C46B5
:1013A000DDE9066533B383699F0700F11808FAD4B5
:1013B000FFF771FF4369DB0700F11407FAD5D8F88E
:1013C0000030DB07F6D5D8F800309B07F2D54B008C
:1013D000DBB200F1100C03613B689B07FCD583690D
:1013E000144412F8013BCCF800303B685B07FCD595
:1013F000A242F6D13DB3FFF74EFFFFF79DFF4369D1
:10140000DA0700F11404FAD58369DB07F7D583699D
:101410009F07F4D5490041F00101C9B200F110075E
:10142000016123689A07FCD583690022691E8A42FC
:1014300001D1FFF786FF23685B06FCD53B68B354F8
:1014400001329542F3D1BDE8F041FFF729BFF8B56D
:101450000F4694B2D1B2FFF743FF661C012F054639
:10146000B6B20BD1FFF745FF02EB82020623B2FBB7
:10147000F3F189B2FFF747FF2E62F8BD04EB840455
:10148000FFF73CFFA1B2F5E703680B430360704729
:10149000036823EA0103036070470368194301608E
:1014A0007047036823EA010303607047430903F1AF
:1014B000804303F50E3300F01F00196801228240BB
:1014C0000A431A607047430903F1804303F50E3362
:1014D00000F01F001A680121814022EA01021A600F
:1014E0007047430903F1804303F50E3300F01F00FA
:1014F00019680122824011431960196821EA020229
:101500001A607047FFF7D2BFFFF7DDBF044AD2F879
:10151000083823F4C00343EA4053C2F80838704740
:1015200000300240032802D0052808D07047084A3E
:10153000D2F8003843F48023C2F800387047044AD8
:10154000D2F8703843F00403C2F87038704700BF17
:1015500000300240032802D0052808D07047084A0E
:10156000D2F8003823F48023C2F800387047044AC8
:10157000D2F8703823F00403C2F87038704700BF07
:1015800000300240072803464FF0010005D90B2B1D
:1015900094BF073B063B984080B2704706280CD8A2
:1015A000DFE800F004242A0C12181E00154AD2F8B5
:1015B0000C3843F48013C2F80C387047114AD2F843
:1015C0000C3843F40023F6E70E4AD2F80C3843F403
:1015D0008023F0E70B4AD2F80C3843F40033EAE7F3
:1015E000084AD2F80C3843F48033E4E7054AD2F8CD
:1015F0000C3843F48003DEE7024AD2F80C3843F497
:101600000013D8E70030024006280CD8DFE800F0CD
:1016100004242A0C12181E00154AD2F80C3843F480
:101620008053C2F80C387047114AD2F80C3843F492
:101630000063F6E70E4AD2F80C3843F48063F0E713
:101640000B4AD2F80C3843F40073EAE7084AD2F8A0
:101650000C3843F48073E4E7054AD2F80C3843F4BD
:101660008043DEE7024AD2F80C3843F40053D8E74F
:101670000030024006280CD8DFE800F004242A0CD1
:1016800012181E00154AD2F80C3823F48053C2F801
:101690000C387047114AD2F80C3823F40063F6E78F
:1016A0000E4AD2F80C3823F48063F0E70B4AD2F8E4
:1016B0000C3823F40073EAE7084AD2F80C3823F414
:1016C0008073E4E7054AD2F80C3823F48043DEE760
:1016D000024AD2F80C3823F40053D8E70030024015
:1016E00006282FD8DFE800F00422280A10161C0074
:1016F000154BD3F80C08C0F300107047124BD3F809
:101700000C08C0F3C00070470F4BD3F80C08C0F3AF
:10171000800070470C4BD3F80C08C0F340007047B2
:10172000094BD3F80C0800F001007047064BD3F8C2
:101730000C08C0F380107047034BD3F80C08C0F3BB
:10174000401070470020704700300240034AD2F832
:101750000C3843F40003C2F80C38704700300240E4
:10176000024BD3F80C08C0F3C010704700300240A1
:1017700006282BD8DFE800F0041E240A10161A00F1
:10178000134BD3F80008C0F340607047104BD3F8F8
:101790000008C0F3404070470D4BD3F80008C0F379
:1017A000400070470A4BD3F87008F8E7084BD3F8AD
:1017B0007408F4E7064BD3F80008C0F34070704794
:1017C000034BD3F80008C0F3C06070470020704797
:1017D0000030024008B502461046FFF7C9FF002856
:1017E000FAD008BD032807D10D4AD2F80838C3F350
:1017F0008103012BF9D17047042806D1084AD2F899
:10180000083813F00C0FFAD170470028FCD1044AB5
:10181000D2F80838C3F38103022BF9D1704700BF17
:101820000030024006280CD8DFE800F004282E0C17
:1018300012182000174AD2F8003843F08073C2F81B
:1018400000387047134AD2F8003843F48033F6E783
:10185000104AD2F8003843F00103F0E70D4AD2F8FD
:10186000703843F00103C2F870387047094AD2F863
:10187000743843F00103C2F874387047054AD2F84F
:10188000003843F08053DAE7024AD2F8003843F0D8
:101890008063D4E70030024006280CD8DFE800F06F
:1018A00004282E0C12182000174AD2F8003823F012
:1018B0008073C2F800387047134AD2F8003823F416
:1018C0008033F6E7104AD2F8003823F00103F0E73E
:1018D0000D4AD2F8703823F00103C2F8703870470F
:1018E000094AD2F8743823F00103C2F874387047FB
:1018F000054AD2F8003823F08053DAE7024AD2F8DA
:10190000003823F08063D4E700300240034AD2F865
:10191000003843F40023C2F800387047003002401A
:10192000034AD2F8003823F40023C2F80038704785
:101930000030024047F6C0730907044A03EA8013E7
:1019400001F0E0410B43C2F8843870470030024098
:1019500012061B0703F0E04302F0706209041A4309
:1019600001F4403147F6C07303EA80130A431A4377
:10197000014BC3F88828704700300240084AD2F86B
:101980008C3823F07F4323F47C03090423F4604361
:1019900041EA002123F0FF031943C2F88C18704775
:1019A00000300240044AD2F8083823F0030303430E
:1019B000C2F80838704700BF00300240044AD2F82D
:1019C000043823F4800343EA8053C2F80438704794
:1019D00000300240044AD2F8083823F4604343EA56
:1019E0004033C2F80838704700300240044AD2F849
:1019F000083823F4E05343EA8023C2F808387047DC
:101A000000300240044AD2F8083823F0F00343EAD9
:101A10000013C2F80838704700300240044AD2F878
:101A2000083823F4F81343EA0043C2F80838704733
:101A30000030024010B547F6C07404EA811400F08B
:101A40003F001B0603F0706304431C43029B5208D3
:101A5000022B02F1FF324FEA024238BF022302F4A6
:101A600040321B0703F0E04314431C43014BC3F80F
:101A7000044810BD0030024010B5029C022C38BF53
:101A8000022424071B0603F0706304F0E0445208AC
:101A90001C4300F03F0047F6C073013A03EA81138C
:101AA000044312041C4302F44032034B144344F435
:101AB0008004C3F8044810BD00300240024BD3F844
:101AC0000808C0F3810070470030024037B5044673
:101AD0000420FFF7A7FEFFF77DFE0020FFF762FF5F
:101AE000E379012B04D10320FFF79CFEFFF772FE80
:101AF00040F61C00FFF7DAFCE07B00F037FA207BB1
:101B0000FFF780FF607BFFF771FFA07BFFF762FFAD
:101B10000020FFF7C1FEE379A5792279618820785A
:101B2000012B637900952FD1FFF7A6FF0020FFF767
:101B300079FEFFF74FFEA3685A0528D500F0DAF9C1
:101B4000A3689B0526D500F0E9F9A06800F0B8F974
:101B50000220FFF727FF124AD2F80838C3F38103A7
:101B6000022BF9D10F4B22691A600F4B62691A6080
:101B70000E4BA2691A60E379012B0ED1042003B049
:101B8000BDE83040FFF788BEFFF754FFCEE700F016
:101B9000BBF9D5E700F0CCF9D7E703B030BD00BF03
:101BA0000030024008000020040000200000002057
:101BB000FFF78CBF044B20F4806098420CBF034BAE
:101BC000034B1868704700BF001001400000002060
:101BD00004000020094B00F14040B0F5005FD3F84D
:101BE000083806D8064A106813F4E05F18BF4000B2
:101BF0007047044A13F4604F1068F7E70030024062
:101C00000400002000000020014B1868704700BF4E
:101C100004000020044B20F4806098420CBF034B6A
:101C2000034B1868704700BF0038004004000020D4
:101C300000000020FEE7704738B51D4A1D4B1E49C5
:101C40008B4220D31D4A0021934221D34FF0E02341
:101C50001B4CD3F8142D1B4D42F40072C3F8142D05
:101C6000D3F8882D42F47002C3F8882DAC4212D309
:101C7000154C164DAC4212D3FEF718FC144C154D02
:101C8000AC4210D338BD52F8040B43F8040BD7E72D
:101C900043F8041BD8E754F8043B9847E6E754F8A8
:101CA000043B9847E6E754F8043B9847E8E700BF51
:101CB00048250008000000200C00002068000020DB
:101CC0004825000848250008482500084825000840
:101CD00048250008482500084FF0E02320F07F4009
:101CE000586170474FF0E023586920F07F407047FB
:101CF0004FF0E023986920F07F4070474FF0E022DA
:101D000000F00400136923F00403034313617047D8
:101D100008B5B1FBF0F10B4B994210D86FF07F433F
:101D2000994226BFC90800200420FFF7E7FF0139C8
:101D30004FF0E02321F07F415961012008BD0020D0
:101D4000FCE700BFF7FFFF074FF0E022136943F005
:101D50000203136170474FF0E022136923F002037E
:101D6000136170474FF0E022136943F001031361E0
:101D700070474FF0E022136923F0010313617047AD
:101D80004FF0E0231869C0F3004070474FF0E023A4
:101D900000229A6170474FF0E023D86920F07F401D
:101DA00070470000044B420903EB820300F01F0060
:101DB000012282401A60704700E100E0044B4209B2
:101DC00003EB820300F01F00012282401A6070477B
:101DD00080E100E0064B420903EB820300F01F00A4
:101DE0001A6801238340134214BF0120002070476A
:101DF00000E200E0044B420903EB820300F01F0005
:101E0000012282401A60704700E200E0044B420960
:101E100003EB820300F01F00012282401A6070472A
:101E200080E200E0064B420903EB820300F01F0052
:101E30001A6801238340134214BF01200020704719
:101E400000E100E05A2893BF00F16040044B00F02D
:101E50000F0000F564408CBFC1540170704700BF93
:101E600014ED00E0064B420903EB820300F01F0073
:101E70001A6801238340134214BF012000207047D9
:101E800000E300E0EF289FBF4FF0E023D3F8002FDE
:101E90001043C3F8000F7047034AD2F8003C43F4E4
:101EA0008073C2F8003C704700300240034AD2F809
:101EB000003C23F48073C2F8003C704700300240BD
:101EC000044AD2F8003C23F00F030343C2F8003C5D
:101ED000704700BF00300240044B054AC3F8082C8D
:101EE00002F14432C3F8082C704700BF00300240B2
:101EF0003B2A1908034AD2F8003C43F48063C2F835
:101F0000003C704700300240034AD2F8003C23F402
:101F10008063C2F8003C704700300240034AD2F8A8
:101F2000003C43F40073C2F8003C704700300240AC
:101F3000034AD2F8003C23F40073C2F8003C704717
:101F400000300240034AD2F8003C43F48053C2F808
:101F5000003C704700300240034AD2F8003C43F492
:101F60000063C2F8003C704700300240044A136826
:101F7000800323F4404380B218431060704700BFD1
:101F80000070004000F000B810B582B0CDED010A3D
:101F9000019B23F00042B2F1FF4FF0EE407A30D8BF
:101FA00010EE100A20F00041B1F1FF4F29D8B3F133
:101FB0007E5F42D09C1704F0020444EAD07431B32F
:101FC0007AB3B2F1FF4F40D0B1F1FF4F29D0891A57
:101FD000B1F1F45F4FEAE15234DA002B42DA3C32DD
:101FE00040DA9FED340A012C4ED0022C43D064B16C
:101FF0009FED317ADFED317A30EE070A30EE670A75
:1020000003E09DED017A37EE270A02B010BD022CE5
:1020100010D09FED2B7A032C08BFB0EE470A02B018
:1020200010BD9FED280ADFED287A0028B8BFB0EE7A
:10203000670AEAE79FED210AE7E702B0BDE8104032
:1020400000F04AB89FED1F0ACDE7B1F1FF4F04F150
:10205000FF3420D0022C26D81C4B03EB840393EDD5
:10206000000AD2E79DED017A87EE870A00F00AF9AF
:1020700000F032F8B7E79FED107ADFED107A30EE1E
:10208000070A37EEC00AC0E710EE103A03F100432A
:1020900000EE103AB9E7022C08D80D4B03EB84038D
:1020A00093ED000AB1E79FED030AAEE79FED090A41
:1020B000ABE700BF000000002EBDBB33DB0F494083
:1020C000DB0F49C0DB0FC93FDB0FC9BF102500087C
:1020D0001C250008DB0F493F38B510EE105A25F0DB
:1020E0000044B4F1A14FF0EE407A0DD3B4F1FF4FAC
:1020F0005BD8DFED517A9FED517A002DCCBFB0EE69
:10210000470AB0EE670A38BD4D4B9C425CD8B4F12B
:10211000445F4DD34FF0FF3327EEA76A9FED495A36
:102120009FED497ADFED495ADFED494A66EE066ACE
:102130005A1CA6EE857AE6EEA54A9FED465ADFEDDB
:10214000465AA7EE265AE4EEA65A9FED447ADFEDF2
:10215000444AA5EE267AE5EEA64A9FED425ADFED07
:10216000425AA7EE265A9FED417AA4EEA67AE5EEF2
:10217000265A27EE267AA5EE867A27EE877A38D079
:102180003B493C4A01EB8301D1ED006A37EE667AA8
:1021900002EB8303D3ED006A37EE677A002D36EE4B
:1021A000C70AB0DAB1EE400A38BD30EE000A38BDD9
:1021B0009FED317A30EE077AF7EE006AB4EEE67AF8
:1021C000F1EE10FAA6DD38BD00F05CF82B4B9C4216
:1021D00012D8A3F5D0039C4223D8F0EE007ABFEECC
:1021E000007AA0EE277A002330EE270AC7EE007AA5
:1021F00092E737EEC70A38BD214B9C420BD8F7EE69
:10220000087AB7EE007AA0EE277A022330EE670A4A
:10221000C0EE077A80E7BFEE007AC7EE007A0323AC
:102220007AE7F7EE007A30EE677A30EE270A01237C
:10223000C7EE007A70E700BFDB0FC9BFDB0FC93FF5
:10224000FFFFDF3ED769853C59DA4B3D21A215BD22
:102250006BF16EBD356B883D95879DBD6E2EBA3D89
:10226000388EE3BD2549123EABAAAA3ECDCC4CBE6A
:102270002825000838250008CAF24971FFFF973F5A
:10228000FFFF1B4010EE103A23F0004300EE103A1F
:10229000704700BF5645523A2025640043683366B4
:1022A000203053203A330000303132333435363762
:1022B0003839414243444546000000003031323352
:1022C0003435363738396162636465660000000072
:1022D000503A256400000000523A256400000000D6
:1022E0001900500104070001020600000004000369
:1022F00000BD010580DE800200BD01051900C0009F
:1023000002040001030600000004000300D8B80521
:10231000006CDC0200D8B80519005001020700016A
:102320000506000000050403007A030A80DE80022F
:1023300000BD010519006801020800010506000042
:10234000000504030095BA0A40A5AE02804A5D0567
:102350001000500104070001020600000004000301
:1023600000BD010580DE800200BD0105080060009F
:1023700002040001030600000004000300D8B805B1
:10238000006CDC0200D8B805100050010207000103
:102390000506000000050403007A030A80DE8002BF
:1023A00000BD0105100068010208000105060000DB
:1023B000000504030095BA0A40A5AE02804A5D05F7
:1023C0000C00500104070001020600000004000395
:1023D00000BD010580DE800200BD01050600600031
:1023E00002040001030600000004000300D8B80541
:1023F000006CDC0200D8B8050C0050010207000197
:102400000506000000050403007A030A80DE80024E
:1024100000BD01050C00680102080001050600006E
:10242000000504030095BA0A40A5AE02804A5D0586
:102430000800500104070001020600000004000328
:1024400000BD010580DE800200BD010504006000C2
:1024500002040001030600000004000300D8B805D0
:10246000006CDC0200D8B80508005001020700012A
:102470000506000000050403007A030A80DE8002DE
:1024800000BD010508006801020800010506000002
:10249000000504030095BA0A40A5AE02804A5D0516
:1024A00010005001040700000206000000040003B1
:1024B00000BD010580DE800200BD0105080060004E
:1024C00002040000030600000004000300D8B80561
:1024D000006CDC0200D8B8051000500102070000B3
:1024E0000506000000050403007A030A80DE80026E
:1024F00000BD01051000680102080000050600008B
:10250000000504030095BA0A40A5AE02804A5D05A5
:1025100000000080DB0F4940DB0F49C0DB0F49BFE3
:10252000E4CB1640E4CB16C06937AC3168212233C6
:10253000B40F14336821A2333863ED3EDA0F493FFC
:082540005E987B3FDA0FC93FF2
:0C2548000024F4000024F4000024F4003F
:0400000508001C399A
:00000001FF
