:020000040800F2
:10000000000001200921000807210008052100083F
:100010000521000805210008052100080000000056
:1000200000000000000000000000000007210008A0
:10003000072100080000000007210008AD010008AA
:1000400005210008052100080521000805210008F8
:1000500005210008052100080521000805210008E8
:1000600005210008052100080521000805210008D8
:1000700005210008052100080521000805210008C8
:1000800005210008052100080521000805210008B8
:1000900005210008052100080521000805210008A8
:1000A0000521000805210008052100080521000898
:1000B0009502000805210008052100080521000817
:1000C0000521000805210008052100080521000878
:1000D0000521000805210008052100080521000868
:1000E0000521000805210008052100080521000858
:1000F0000521000805210008052100080521000848
:100100000521000805210008052100080521000837
:100110000521000805210008052100080521000827
:100120000521000805210008052100080521000817
:100130000521000805210008052100080521000807
:1001400005210008052100080521000805210008F7
:1001500005210008052100080521000805210008E7
:1001600005210008052100080521000805210008D7
:1001700005210008052100080521000805210008C7
:1001800005210008052100080521000805210008B7
:1001900005210008052100080521000805210008A7
:1001A00005210008052100080521000880B400AFE2
:1001B000044B1B680133034A136000BFBD465DF862
:1001C000047B70472000002080B500AF074801F095
:1001D000EBFF042001F0FAFF02F02CF80221FF20CF
:1001E00002F098F802F018F800BF80BD2048010026
:1001F00080B500AF0B4801F0D1FE4FF4C06001F0B4
:10020000BDFB40F2016001F0B9FB40F2026001F079
:10021000B5FB4FF4006001F0B1FBFFF7D5FF00BF65
:1002200080BD00BF2028000880B485B000AF786092
:100230000023FB6022E07B6858781549FA68134672
:100240005B0013440B44013302461A707B68187834
:100250000F49FA6813465B0013440B4402461A70B8
:100260007B6898780A49FA6813465B0013440B448C
:10027000023302461A70FB680133FB60FB68022BF5
:10028000D9D900BF00BF1437BD465DF8047B704765
:100290000C00002080B500AF032000F0D0FC044B20
:1002A0001B68034A23F00103136000BF80BD00BF39
:1002B0001000004080B500AF1C2001F0DBFF0321DF
:1002C0001C2002F027F80D4B01221A600C4B4FF452
:1002D0002F621A600B4B4FF47A721A600A4B1B683C
:1002E000094A43F0010313604FF080431B684FF04D
:1002F000804243F00103136000BF80BD2400004032
:10030000280000402C0000400C00004080B500AFE9
:100310004FF4005300220121094801F0B3F94FF4D2
:10032000004300220121064801F0ACF94FF480435C
:1003300000220121024801F0A5F900BF80BD00BFE5
:100340000008024080B483B000AF786008461146D0
:100350001A460346FB700B46BB7013467B707B68E6
:10036000FA785A707B68BA781A707B687A789A70D3
:1003700000BF0C37BD465DF8047B704780B500AF09
:10038000C0220421144801F0B8F9C0230022022140
:10039000114801F077F9C023022201210E4801F033
:1003A00091F940F6150001F0E9FA0C4801F0D6F990
:1003B0002A210A4801F0FCF9084801F002FA232139
:1003C000064801F008FA0E21044801F00AFA034831
:1003D00001F0BFF900BF80BD00040240005400409E
:1003E00080B500AF0023002200211048FFF7AAFFCC
:1003F00003220E490E4800F0C3F80023002200211A
:100400000A48FFF79FFF032208490A4800F0B8F89E
:100410000023002200210548FFF794FF032203492F
:10042000054800F0ADF800BF80BD00BF18000020F7
:100430000C0000200F0000201200002080B584B0C6
:1004400000AF3B4610222021184600F0D6F83B466C
:1004500001220949184600F03FF90021074800F041
:1004600080FE3B460121184600F07BFE00F0AEFD09
:1004700000BF1037BD4680BD642700086C27000808
:1004800080B584B000AF0023FB600023BB60002375
:100490007B60FFF7ADFEFFF797FE142000F058F8E1
:1004A00000F01CFDFFF732FF4FF48041254801F0BA
:1004B000D3F8FFF79DFEFFF793FFFFF75FFF00F014
:1004C000B9FF00F0C7FDFFF7B9FF40F6B83000F004
:1004D0003FF8FFF7EFFE00BF00F012FF034683F086
:1004E0000103DBB2002BF7D100F0E2FF164B5B6992
:1004F000FA689A4204D1144BDB69BA689A420BD06D
:10050000124801F041F81148FFF78EFE0E4B5B696F
:10051000FB600D4BDB69BB607B6801337B607B68F4
:100520001E2B08DD4FF40051064801F095F800F04D
:10053000FBFE00237B6000F0EDFE642000F008F875
:10054000C9E700BF00080240480000201800002052
:1005500080B485B000AF7860084B1B687A6813449C
:10056000FB6000BF054B1B68FA689A42FAD800BFCF
:1005700000BF1437BD465DF8047B704720000020A3
:1005800080B489B000AFF860B9607A60FB68BB6185
:10059000BB687B610023FB610AE07A69FB691A444E
:1005A000B969FB690B4412781A70FB690133FB616E
:1005B000FA697B689A42F0D300BF00BF2437BD467A
:1005C0005DF8047B704780B485B000AF786000238D
:1005D000FB607B68BB6005E0FB680133FB60BB68C8
:1005E0000133BB60BB681B78002BF5D1FB68184654
:1005F0001437BD465DF8047B704780B487B000AF08
:10060000F8600B467A60FB72FB683B6100237B61FC
:1006100007E03A697B691344FA7A1A707B690133FF
:100620007B617A697B689A42F3D300BF00BF1C37B5
:10063000BD465DF8047B704780B48BB000AFF860B6
:10064000B9607A603B60BB68FB613B68002B01D0FE
:100650001F4B00E01F4BBB61FB697B627A68FB6844
:10066000B3FBF2F101FB02F29B1ABA691A447B6AEE
:10067000591C796212781A707B68FA68B2FBF3F33E
:10068000FB60FB68002BE9D17B6A5A1E7A6200226C
:100690001A70FB693B620FE03B6A1B78FB757B6A53
:1006A0001A783B6A1A707B6AFA7D1A703B6A0133CA
:1006B0003B627B6A013B7B623A6A7B6A9A42EBD37C
:1006C000FB6918462C37BD465DF8047B704700BFB8
:1006D000782700088C2700080EB480B597B000AFCB
:1006E00078607B687B6507F16803FB627B6E3B6526
:1006F000FEE03B6D1B78252B06D07B6D5A1C7A657E
:100700003A6D12781A70F0E03B6D01333B653B6D3A
:100710001B78252B00F0DD80252BC0F2E080782BA4
:1007200000F3DD80582BC0F2DA80583B202B00F21A
:10073000D68001A252F823F071080008DF080008F3
:10074000DF080008DF080008DF080008DF080008ED
:10075000DF080008DF080008DF080008DF080008DD
:10076000DF080008B9080008E3070008DF080008F0
:10077000DF080008DF080008DF080008DF080008BD
:10078000DF080008DF080008DF080008DF080008AD
:10079000DF080008DF080008DF080008DF0800089D
:1007A000DF080008BD070008DF080008350800085A
:1007B000DF080008DF08000871080008FB6A1A1D3E
:1007C000FA621B68FB6407E0FA6C531CFB647B6DE8
:1007D000591C796512781A70FB6C1B78002BF3D1C9
:1007E00083E0FB6A1A1DFA621B68BB64BB6C002BBA
:1007F00007DA7B6D5A1C7A652D221A70BB6C5B423E
:10080000BB64B86C07F1200100230A22FFF714FF34
:1008100007F120037B6408E07B6D5A1C7A657A6CD3
:1008200012781A707B6C01337B647B6C1B78002B15
:10083000F2D15AE0FB6A1A1DFA621B68BB6307F12A
:10084000140100230A22B86BFFF7F6FE07F1140328
:100850003B6408E07B6D5A1C7A653A6C12781A701A
:100860003B6C01333B643B6C1B78002BF2D13CE0CA
:10087000FB6A1A1DFA621B683B633B6D1B78582BA1
:100880000CBF01230023DBB207F108011022386BF3
:10089000FFF7D2FE07F10803FB6308E07B6D5A1CEB
:1008A0007A65FA6B12781A70FB6B0133FB63FB6B92
:1008B0001B78002BF2D118E0FB6A1A1DFA621B6844
:1008C00087F837307B6D5A1C7A6597F837201A7095
:1008D0000BE07B6D5A1C7A6525221A7005E07B6D52
:1008E0005A1C7A653F221A7000BF3B6D01333B658D
:1008F0003B6D1B78002B7FF4FCAE7B6D00221A70E1
:100900007A6D7B68D31A18465C37BD46BDE88040D7
:1009100003B070470CB480B59CB000AF786039600C
:1009200007F17C03BB630023FB666CE1BB6F1B78A4
:10093000252B0AD0BB6F5A1CBA67FA6E511CF96698
:1009400079680A441B7813705DE1BB6F0133BB67A4
:10095000002387F86B30BB6F1B786C2B06D101230B
:1009600087F86B30BB6F0133BB6700BFBB6F1B7871
:10097000252B00F01E81252BC0F22881782B00F357
:100980002581582BC0F22281583B202B00F21E817A
:1009900001A252F823F000BFF90A0008CD0B0008AD
:1009A000CD0B0008CD0B0008CD0B0008CD0B0008C7
:1009B000CD0B0008CD0B0008CD0B0008CD0B0008B7
:1009C000CD0B0008570B00081D0A0008CD0B0008CE
:1009D000CD0B0008CD0B0008CD0B0008CD0B000897
:1009E000CD0B0008CD0B0008CD0B0008CD0B000887
:1009F000CD0B0008CD0B0008CD0B0008CD0B000877
:100A0000CD0B00087F0B0008CD0B0008A70A0008DB
:100A1000CD0B0008CD0B0008F90A000897F86B30E1
:100A2000002B04D0BB6B1A1DBA631B6803E0BB6BC1
:100A30001A1DBA631B687B667B6E002B0EDA3B685F
:100A4000013BFA6E9A4206D2FB6E5A1CFA667A682D
:100A500013442D221A707B6E5B427B66786E07F121
:100A6000280100230A22FFF7E7FD0346BB640023A9
:100A70003B660DE0FB6E5A1CFA667A68134407F178
:100A800028013A6E0A4412781A703B6E01333B66B5
:100A90003A6EBB6C9A4280F2A6803B68013BFA6ECC
:100AA0009A42E7D39FE0BB6B1A1DBA631B683B6594
:100AB00007F1180100230A22386DFFF7BDFD034638
:100AC000FB640023FB650DE0FB6E5A1CFA667A6836
:100AD000134407F11801FA6D0A4412781A70FB6D7D
:100AE0000133FB65FA6DFB6C9A427EDA3B68013B91
:100AF000FA6E9A42E8D378E0BB6B1A1DBA631B68A2
:100B00003B64BB6F1B78582B0CBF01230023DBB267
:100B100007F108011022386CFFF78EFD0346FB63D6
:100B20000023BB650DE0FB6E5A1CFA667A6813441D
:100B300007F10801BA6D0A4412781A70BB6D0133CF
:100B4000BB65BA6DFB6B9A4251DA3B68013BFA6EAA
:100B50009A42E8D34BE0BB6B1A1DBA631B6887F857
:100B600047303B68013BFA6E9A4242D2FB6E5A1CF8
:100B7000FA667A68134497F847201A7039E0BB6B1D
:100B80001A1DBA631B687B6509E07B6D5A1C7A6588
:100B9000FA6E511CF96679680A441B7813707B6DF4
:100BA0001B78002B27D03B68013BFA6E9A42ECD3AE
:100BB00021E03B68013BFA6E9A421ED2FB6E5A1C42
:100BC000FA667A68134425221A7016E03B68013BE6
:100BD000FA6E9A4213D2FB6E5A1CFA667A68134474
:100BE0003F221A700BE000BF0AE000BF08E000BF20
:100BF00006E000BF04E000BF02E000BF00E000BF6D
:100C0000BB6F0133BB67BB6F1B78002B05D03B6804
:100C1000013BFA6E9A42FFF489AE7A68FB6E134488
:100C200000221A70FB6E18467037BD46BDE8804042
:100C300002B0704720B5051C013DFDD120BDF0B5C7
:100C40006F4688B00190032148430690002002902F
:100C50000390274D029803214843039940182D58CB
:100C600005950131032903D100210298013002903A
:100C70000391082004900420FFF7DCFFC04602E047
:100C80000B20FFF7D7FF049801380490194D6E69C7
:100C90004FF4804426436E610498059E0125C640AA
:100CA0003540002D09D01120FFF7C4FF114D6E69AA
:100CB0004BF6FF7426406E610CE0C0460220FFF741
:100CC000B9FF0C4D6E694BF6FF7426406E61112022
:100CD000FFF7B0FF04980028D2D1029803214843BF
:100CE0000399401806998842B3D1BD46F0BD000073
:100CF0000C0000200008024080B483B000AF786090
:100D00007B681A687B6842F001021A6000BF0C37EA
:100D1000BD465DF8047B704780B483B000AF786057
:100D20007B681A687B6822F001021A6000BF0C37EA
:100D3000BD465DF8047B704780B483B000AF0E4BB6
:100D40001B689BB223F03F03FB80FB8843F00A0340
:100D50009AB2094B1A604FF44043FB80FB8843F082
:100D60001903FB80054AFB88136000BF0C37BD46A2
:100D70005DF8047B704700BF045400401C540040E1
:100D800080B483B000AF0F4B1B6823F470437B60CB
:100D90007B6843F420437B600A4A7B6813600A4BFC
:100DA0001B6823F07F437B607B6843F088437B6054
:100DB000054A7B68136000BF0C37BD465DF8047BB5
:100DC000704700BF000402402004024080B400AF1E
:100DD000034B00221A6000BFBD465DF8047B7047DC
:100DE0002454004080B582B000AF0346FB710F2150
:100DF0001B4800F02BFCFB7903F00103002B03D010
:100E00000121174800F020FCFB7903F00203002BBE
:100E100003D00221124800F017FCFB7903F0040311
:100E2000002B03D004210E4800F00EFCFB7903F0E8
:100E30000803002B03D00821094800F005FC4FF4FB
:100E40008051084800F000FC0520FFF781FB4FF4BB
:100E50008051044800F0FAFB00BF0837BD4680BD52
:100E6000000002400004024080B584B000AF034699
:100E7000FB710B46BB7113467B717B7903F00F034B
:100E8000FB737B791B09BB73134B1B68BA79002A70
:100E900002D04FF4005100E00021FA79002A02D07C
:100EA0004FF4804200E000220A4311460A4A0B43F5
:100EB0001360BB7B1846FFF795FFFB7B1846FFF7D7
:100EC00091FF054B1B68044A23F4C043136000BF25
:100ED0001037BD4680BD00BF1404024080B500AF8E
:100EE0000F23002201211E4800F0CCFB0F2300221B
:100EF00000211B4800F0E6FB4FF4E04300220121F3
:100F0000184800F0BFFB4FF4E043002200211548D1
:100F100000F0D8FB0320FFF765FF0520FFF718FB63
:100F20000320FFF75FFF0520FFF712FB0320FFF709
:100F300059FF0520FFF70CFB0220FFF753FF0520A8
:100F4000FFF706FB282000F00FF80C2000F00CF84B
:100F5000062000F009F8012000F006F800BF80BD6F
:100F6000000002400004024080B582B000AF03469A
:100F7000FB71FB791A4600210020FFF775FF00BFC7
:100F80000837BD4680BD80B584B000AF0346FB7115
:100F9000FB7903F07F03FB73FB7B63F07F03DBB222
:100FA0001846FFF7E1FF00BF1037BD4680BD80B592
:100FB00082B000AF0346FB71FB791A460021012085
:100FC000FFF752FF00BF0837BD4680BD80B582B035
:100FD00000AF0023FB711D4B1B7883F00103DBB2D4
:100FE000002B2ED10120FFF7BFFF0220FFF7BCFF2F
:100FF00009E0FB79164A12F813301846FFF7D7FFBD
:10100000FB790133FB71FB790F2BF2D94020FFF7FD
:10101000BAFF0520FFF79CFA0023FB710AE0FB7979
:101020000B4A5B0013445B781846FFF7C0FFFB795F
:101030000133FB71FB790F2BF1D9044B00221A709D
:1010400000E000BF0837BD4680BD00BF440000205F
:101050002400002080B500AF202220210348FFF7A4
:10106000CCFA0120FFF780FF00BF80BD24000020E4
:1010700080B483B000AF0346FB710B46BB711346CF
:101080007B71FB790F2B02D8BB79012B01D9FF2390
:101090000BE0FA79BB79084952000A4413447A7983
:1010A0001A70064B01221A70002318460C37BD46F1
:1010B0005DF8047B704700BF24000020440000203E
:1010C00080B400AF034B1B781846BD465DF8047B27
:1010D000704700BF4400002080B584B000AF0346D5
:1010E0003960FB713868FFF76EFA03467B737A7BD1
:1010F000FB791344FB73FB7B1F2B01D91F23FB736D
:10110000FB79BB7324E0BB7B0F2B0FD8BB7B03F0B9
:101110000F03D8B2BA7BFB79D31A1A463B68134443
:101120001B781A460021FFF7A3FF0EE0BB7B03F0FC
:101130000F03D8B2BA7BFB79D31A1A463B68134423
:101140001B781A460121FFF793FFBB7B0133BB736A
:10115000BA7BFB7B9A42D6D37B7B18461037BD46C1
:1011600080BD80B582B000AF78600B46FB70FB7825
:10117000012B01D9FF230AE0FB78002B01D01023BB
:1011800000E0002379681846FFF7A6FF0023184601
:101190000837BD4680BD000080B586B000AF03466D
:1011A000FB800B46BB8013467B80B7F9063007EE09
:1011B000903AB8EEE77ADFED2B6AC7EE267AC7EDF4
:1011C000057AB7F9043007EE903AB8EEE77ADFED2A
:1011D000256AC7EE267AC7ED047AB7F9023007EE22
:1011E000903AB8EEE77ADFED1F6AC7EE267AC7EDD0
:1011F000037AD7ED057AF0EEE77A9FED1B7AF4EEED
:10120000477AF1EE10FA15D8D7ED047AF0EEE77AC6
:101210009FED157AF4EE477AF1EE10FA0AD8D7ED81
:10122000037AF0EEE77A9FED107AF4EE477AF1EE6A
:1012300010FA02D9DFED0D7A0FE0D7ED057AF1EE65
:10124000677AD7ED030AB0EE670A01F003F9F0EE12
:10125000407A9FED077A67EE877AB0EE670A183713
:10126000BD4680BD00008046FFFF7F7F000000007C
:101270009A99654280B586B000AF0346FB800B4665
:10128000BB8013467B80B7F9063007EE903AB8EE84
:10129000E77ADFED196AC7EE267AC7ED057AB7F966
:1012A000043007EE903AB8EEE77ADFED136AC7EE46
:1012B000267AC7ED047AB7F9023007EE903AB8EE15
:1012C000E77ADFED0D6AC7EE267AC7ED037AD7ED30
:1012D000047AF1EE677AD7ED030AB0EE670A01F0FF
:1012E000B9F8F0EE407A9FED057A67EE877AB0EEB6
:1012F000670A1837BD4680BD000080469A9965424E
:1013000080B500AF024800F06BF90346184680BD77
:101310004800002080B500AF024800F082F900BF0D
:1013200080BD00BF4800002080B584B000AFFFF74B
:1013300091FE3B46102200211846FFF75EF9124B42
:101340005B693846114A0F21FFF7E4FA3B4600215A
:101350001846FFF706FF3B46102200211846FFF70C
:101360004CF9094BDB693846094A0F21FFF7D2FADD
:101370003B4601211846FFF7F4FEFFF727FE00BFAA
:101380001037BD4680BD00BF48000020A0270008E0
:10139000A827000880B586B002AF0346FB71FA1D8E
:1013A0000123019307F10F030093012368210448EF
:1013B00000F05BFAFB7B18461037BD4680BD00BFCE
:1013C0000054004080B584B000AF0346FB71002399
:1013D000FB81FB791846FFF7DDFF03461B02FB810B
:1013E000FB790133DBB21846FFF7D4FF03461A46F8
:1013F000FB891343FB81FB8918461037BD4680BD2E
:1014000080B584B002AF78600B46FB70FB78002299
:101410000192002200927A686821054800F025FABE
:101420006420FFF795F800BF0837BD4680BD00BFB8
:101430000054004080B584B002AF6B23BB801C23F6
:101440003B807523FB71FA1D002301930023009359
:1014500001236821144800F008FA01230193FB1DC1
:1014600000930023002268210F4800F0FEF93B1D85
:1014700002211846FFF7C4FF3B4602211846FFF73A
:10148000BFFF1C20FFF786FF0346FB71FB79002B93
:1014900001D000BFFDE7242200210448FFF7ADF88A
:1014A00000BF0837BD4680BD005400404800002002
:1014B00080B500AF3B20FFF785FF03461AB2234BF0
:1014C0001A813D20FFF77EFF03461AB21F4B5A8157
:1014D0003F20FFF777FF03461AB21C4B9A811B4B44
:1014E000B3F90830194AB2F90A10184AB2F90C20B7
:1014F0001846FFF751FEF0EE407A144BC3ED047A24
:10150000124BD3ED047AFDEEE77A17EE902A0F4BDB
:101510005A610E4BB3F908300C4AB2F90A100B4A63
:10152000B2F90C201846FFF7A5FEF0EE407A074B03
:10153000C3ED067A054BD3ED067AFDEEE77A17EE9A
:10154000902A024BDA6100BF80BD00BF4800002036
:1015500080B487B000AFF860B9607A607B687B6167
:101560007A68FB689A4202DAFB687B6105E07A6878
:10157000BB689A4201DDBB687B617B6918461C37FA
:10158000BD465DF8047B704780B582B000AF7860DF
:10159000124B5A6913465B00134480331A46FF21ED
:1015A0000020FFF7D5FF0346DAB27B685A707B68EC
:1015B00000221A70094BDA6913465B00134480332A
:1015C0001A46FF210020FFF7C3FF0346DAB27B680B
:1015D0009A7000BF0837BD4680BD00BF480000209C
:1015E00080B485B000AF78607B68BFF35B8F1B78F9
:1015F000BFF35B8FDBB2BB73BB7B002B01D000233F
:1016000009E00123FB737B68FA7BBFF35B8F1A70E1
:10161000BFF35B8F012318461437BD465DF8047B8A
:10162000704780B485B000AF78600023FB737B689F
:10163000FA7BBFF35B8F1A70BFF35B8F00BF143769
:10164000BD465DF8047B7047816170470904816184
:101650007047006908407047436901EA030221EAC4
:10166000030141EA024181617047006980B270471D
:101670004161704741F48033C361C161C361C36993
:10168000C36970472DE9F0410568C46800264FF032
:10169000030E43FA06F7FF070DD577000EFA07FC95
:1016A00001FA07F825EA0C0524EA0C0402FA07F708
:1016B00048EA05053C430136102EEAD10560C460B6
:1016C000BDE8F081012941680CBF19439943F0B589
:1016D000416081680024032643FA04F5ED0707D52D
:1016E000650006FA05F721EA070102FA05F5294324
:1016F0000134102CF0D18160F0BDF0B5066A456A66
:1017000000234FF00F0C42FA03F4E70707D59C00C3
:101710000CFA04F726EA070601FA04F4264301331B
:10172000082BF0D100234FF00F0C03F1080442FA0C
:1017300004F4E40707D59C000CFA04F725EA070532
:1017400001FA04F425430133082BEED10662456209
:10175000F0BD036843F0010303607047036823F0A2
:10176000010303607047036843F4807303607047AC
:10177000036843F4007303607047036823F4007345
:1017800003607047490041F480418160704741F433
:101790000041816070474900C1607047C36843F0F1
:1017A0000103C3607047C36823F00103C36070473F
:1017B000436823F03F039BB21943416070470161C6
:1017C0007047C36943F40043C3617047C36923F49E
:1017D0000043C3617047C36903F470430B43C361A3
:1017E00070470162704742EA4102D2B2026170471B
:1017F0000069C0B2704743680B4343607047436859
:1018000023EA010343607047036843F48063036085
:101810007047036823F4806303607047036843F4F0
:10182000006303607047036823F40063036070473C
:10183000C36919B923F48043C361704743F48043FB
:10184000FAE7436843F4006343607047436823F456
:10185000006343607047436843F4805343607047BC
:10186000436823F48053436070472DE9F0411C46E0
:10187000DDE9066533B383699F0700F11808FAD4E0
:10188000FFF771FF4369DB0700F11407FAD5D8F8B9
:101890000030DB07F6D5D8F800309B07F2D54B00B7
:1018A000DBB200F1100C03613B689B07FCD5836938
:1018B000144412F8013BCCF800303B685B07FCD5C0
:1018C000A242F6D13DB3FFF74EFFFFF79DFF4369FC
:1018D000DA0700F11404FAD58369DB07F7D58369C9
:1018E0009F07F4D5490041F00101C9B200F110078A
:1018F000016123689A07FCD583690022691E8A4228
:1019000001D1FFF786FF23685B06FCD53B68B35423
:1019100001329542F3D1BDE8F041FFF729BFF8B598
:101920000F4694B2D1B2FFF743FF661C012F054664
:10193000B6B20BD1FFF745FF02EB82020623B2FBE2
:10194000F3F189B2FFF747FF2E62F8BD04EB840480
:10195000FFF73CFFA1B2F5E703680B430360704754
:10196000036823EA010303607047036819430160B9
:101970007047036823EA010303607047430903F1DA
:10198000804303F50E3300F01F00196801228240E6
:101990000A431A607047430903F1804303F50E338D
:1019A00000F01F001A680121814022EA01021A603A
:1019B0007047430903F1804303F50E3300F01F0025
:1019C00019680122824011431960196821EA020254
:1019D0001A607047FFF7D2BFFFF7DDBF044AD2F8A5
:1019E000083823F4C00343EA4053C2F8083870476C
:1019F00000300240032802D0052808D07047084A6A
:101A0000D2F8003843F48023C2F800387047044A03
:101A1000D2F8703843F00403C2F87038704700BF42
:101A200000300240032802D0052808D07047084A39
:101A3000D2F8003823F48023C2F800387047044AF3
:101A4000D2F8703823F00403C2F87038704700BF32
:101A500000300240072803464FF0010005D90B2B48
:101A600094BF073B063B984080B2704706280CD8CD
:101A7000DFE800F004242A0C12181E00154AD2F8E0
:101A80000C3843F48013C2F80C387047114AD2F86E
:101A90000C3843F40023F6E70E4AD2F80C3843F42E
:101AA0008023F0E70B4AD2F80C3843F40033EAE71E
:101AB000084AD2F80C3843F48033E4E7054AD2F8F8
:101AC0000C3843F48003DEE7024AD2F80C3843F4C2
:101AD0000013D8E70030024006280CD8DFE800F0F9
:101AE00004242A0C12181E00154AD2F80C3843F4AC
:101AF0008053C2F80C387047114AD2F80C3843F4BE
:101B00000063F6E70E4AD2F80C3843F48063F0E73E
:101B10000B4AD2F80C3843F40073EAE7084AD2F8CB
:101B20000C3843F48073E4E7054AD2F80C3843F4E8
:101B30008043DEE7024AD2F80C3843F40053D8E77A
:101B40000030024006280CD8DFE800F004242A0CFC
:101B500012181E00154AD2F80C3823F48053C2F82C
:101B60000C387047114AD2F80C3823F40063F6E7BA
:101B70000E4AD2F80C3823F48063F0E70B4AD2F80F
:101B80000C3823F40073EAE7084AD2F80C3823F43F
:101B90008073E4E7054AD2F80C3823F48043DEE78B
:101BA000024AD2F80C3823F40053D8E70030024040
:101BB00006282FD8DFE800F00422280A10161C009F
:101BC000154BD3F80C08C0F300107047124BD3F834
:101BD0000C08C0F3C00070470F4BD3F80C08C0F3DB
:101BE000800070470C4BD3F80C08C0F340007047DE
:101BF000094BD3F80C0800F001007047064BD3F8EE
:101C00000C08C0F380107047034BD3F80C08C0F3E6
:101C1000401070470020704700300240034AD2F85D
:101C20000C3843F40003C2F80C387047003002400F
:101C3000024BD3F80C08C0F3C010704700300240CC
:101C400006282BD8DFE800F0041E240A10161A001C
:101C5000134BD3F80008C0F340607047104BD3F823
:101C60000008C0F3404070470D4BD3F80008C0F3A4
:101C7000400070470A4BD3F87008F8E7084BD3F8D8
:101C80007408F4E7064BD3F80008C0F340707047BF
:101C9000034BD3F80008C0F3C060704700207047C2
:101CA0000030024008B502461046FFF7C9FF002881
:101CB000FAD008BD032807D10D4AD2F80838C3F37B
:101CC0008103012BF9D17047042806D1084AD2F8C4
:101CD000083813F00C0FFAD170470028FCD1044AE1
:101CE000D2F80838C3F38103022BF9D1704700BF43
:101CF0000030024006280CD8DFE800F004282E0C43
:101D000012182000174AD2F8003843F08073C2F846
:101D100000387047134AD2F8003843F48033F6E7AE
:101D2000104AD2F8003843F00103F0E70D4AD2F828
:101D3000703843F00103C2F870387047094AD2F88E
:101D4000743843F00103C2F874387047054AD2F87A
:101D5000003843F08053DAE7024AD2F8003843F003
:101D60008063D4E70030024006280CD8DFE800F09A
:101D700004282E0C12182000174AD2F8003823F03D
:101D80008073C2F800387047134AD2F8003823F441
:101D90008033F6E7104AD2F8003823F00103F0E769
:101DA0000D4AD2F8703823F00103C2F8703870473A
:101DB000094AD2F8743823F00103C2F87438704726
:101DC000054AD2F8003823F08053DAE7024AD2F805
:101DD000003823F08063D4E700300240034AD2F891
:101DE000003843F40023C2F8003870470030024046
:101DF000034AD2F8003823F40023C2F800387047B1
:101E00000030024047F6C0730907044A03EA801312
:101E100001F0E0410B43C2F88438704700300240C3
:101E200012061B0703F0E04302F0706209041A4334
:101E300001F4403147F6C07303EA80130A431A43A2
:101E4000014BC3F88828704700300240084AD2F896
:101E50008C3823F07F4323F47C03090423F460438C
:101E600041EA002123F0FF031943C2F88C187047A0
:101E700000300240044AD2F8083823F00303034339
:101E8000C2F80838704700BF00300240044AD2F858
:101E9000043823F4800343EA8053C2F804387047BF
:101EA00000300240044AD2F8083823F4604343EA81
:101EB0004033C2F80838704700300240044AD2F874
:101EC000083823F4E05343EA8023C2F80838704707
:101ED00000300240044AD2F8083823F0F00343EA05
:101EE0000013C2F80838704700300240044AD2F8A4
:101EF000083823F4F81343EA0043C2F8083870475F
:101F00000030024010B547F6C07404EA811400F0B6
:101F10003F001B0603F0706304431C43029B5208FE
:101F2000022B02F1FF324FEA024238BF022302F4D1
:101F300040321B0703F0E04314431C43014BC3F83A
:101F4000044810BD0030024010B5029C022C38BF7E
:101F5000022424071B0603F0706304F0E0445208D7
:101F60001C4300F03F0047F6C073013A03EA8113B7
:101F7000044312041C4302F44032034B144344F460
:101F80008004C3F8044810BD00300240024BD3F86F
:101F90000808C0F3810070470030024037B504469E
:101FA0000420FFF7A7FEFFF77DFE0020FFF762FF8A
:101FB000E379012B04D10320FFF79CFEFFF772FEAB
:101FC00040F61C00FFF7DAFCE07B00F037FA207BDC
:101FD000FFF780FF607BFFF771FFA07BFFF762FFD9
:101FE0000020FFF7C1FEE379A57922796188207886
:101FF000012B637900952FD1FFF7A6FF0020FFF793
:1020000079FEFFF74FFEA3685A0528D500F0DAF9EC
:10201000A3689B0526D500F0E9F9A06800F0B8F99F
:102020000220FFF727FF124AD2F80838C3F38103D2
:10203000022BF9D10F4B22691A600F4B62691A60AB
:102040000E4BA2691A60E379012B0ED1042003B074
:10205000BDE83040FFF788BEFFF754FFCEE700F041
:10206000BBF9D5E700F0CCF9D7E703B030BD00BF2E
:102070000030024008000020040000200000002082
:10208000FFF78CBF044B20F4806098420CBF034BD9
:10209000034B1868704700BF00100140000000208B
:1020A00004000020094B00F14040B0F5005FD3F878
:1020B000083806D8064A106813F4E05F18BF4000DD
:1020C0007047044A13F4604F1068F7E7003002408D
:1020D0000400002000000020014B1868704700BF7A
:1020E00004000020044B20F4806098420CBF034B96
:1020F000034B1868704700BF003800400400002000
:1021000000000020FEE7704738B51D4A1D4B1E49F0
:102110008B4220D31D4A0021934221D34FF0E0236C
:102120001B4CD3F8142D1B4D42F40072C3F8142D30
:10213000D3F8882D42F47002C3F8882DAC4212D334
:10214000154C164DAC4212D3FEF79AF9144C154DAE
:10215000AC4210D338BD52F8040B43F8040BD7E758
:1021600043F8041BD8E754F8043B9847E6E754F8D3
:10217000043B9847E6E754F8043B9847E8E700BF7C
:10218000182A0008000000200C0000206C0000202D
:10219000182A0008182A0008182A0008182A000817
:1021A000182A0008182A00084FF0E02320F07F408A
:1021B000586170474FF0E023586920F07F40704726
:1021C0004FF0E023986920F07F4070474FF0E02205
:1021D00000F00400136923F0040303431361704704
:1021E00008B5B1FBF0F10B4B994210D86FF07F436B
:1021F000994226BFC90800200420FFF7E7FF0139F4
:102200004FF0E02321F07F415961012008BD0020FB
:10221000FCE700BFF7FFFF074FF0E022136943F030
:102220000203136170474FF0E022136923F00203A9
:10223000136170474FF0E022136943F0010313610B
:1022400070474FF0E022136923F0010313617047D8
:102250004FF0E0231869C0F3004070474FF0E023CF
:1022600000229A6170474FF0E023D86920F07F4048
:1022700070470000044B420903EB820300F01F008B
:10228000012282401A60704700E100E0044B4209DD
:1022900003EB820300F01F00012282401A607047A6
:1022A00080E100E0064B420903EB820300F01F00CF
:1022B0001A6801238340134214BF01200020704795
:1022C00000E200E0044B420903EB820300F01F0030
:1022D000012282401A60704700E200E0044B42098C
:1022E00003EB820300F01F00012282401A60704756
:1022F00080E200E0064B420903EB820300F01F007E
:102300001A6801238340134214BF01200020704744
:1023100000E100E05A2893BF00F16040044B00F058
:102320000F0000F564408CBFC1540170704700BFBE
:1023300014ED00E0064B420903EB820300F01F009E
:102340001A6801238340134214BF01200020704704
:1023500000E300E0EF289FBF4FF0E023D3F8002F09
:102360001043C3F8000F7047034AD2F8003C43F40F
:102370008073C2F8003C704700300240034AD2F834
:10238000003C23F48073C2F8003C704700300240E8
:10239000044AD2F8003C23F00F030343C2F8003C88
:1023A000704700BF00300240044B054AC3F8082CB8
:1023B00002F14432C3F8082C704700BF00300240DD
:1023C0003B2A1908034AD2F8003C43F48063C2F860
:1023D000003C704700300240034AD2F8003C23F42E
:1023E0008063C2F8003C704700300240034AD2F8D4
:1023F000003C43F40073C2F8003C704700300240D8
:10240000034AD2F8003C23F40073C2F8003C704742
:1024100000300240034AD2F8003C43F48053C2F833
:10242000003C704700300240034AD2F8003C43F4BD
:102430000063C2F8003C704700300240044A136851
:10244000800323F4404380B218431060704700BFFC
:102450000070004000F000B810B582B0CDED010A68
:10246000019B23F00042B2F1FF4FF0EE407A30D8EA
:1024700010EE100A20F00041B1F1FF4F29D8B3F15E
:102480007E5F42D09C1704F0020444EAD07431B35A
:102490007AB3B2F1FF4F40D0B1F1FF4F29D0891A82
:1024A000B1F1F45F4FEAE15234DA002B42DA3C3208
:1024B00040DA9FED340A012C4ED0022C43D064B197
:1024C0009FED317ADFED317A30EE070A30EE670AA0
:1024D00003E09DED017A37EE270A02B010BD022C11
:1024E00010D09FED2B7A032C08BFB0EE470A02B044
:1024F00010BD9FED280ADFED287A0028B8BFB0EEA6
:10250000670AEAE79FED210AE7E702B0BDE810405D
:1025100000F04AB89FED1F0ACDE7B1F1FF4F04F17B
:10252000FF3420D0022C26D81C4B03EB840393ED00
:10253000000AD2E79DED017A87EE870A00F00AF9DA
:1025400000F032F8B7E79FED107ADFED107A30EE49
:10255000070A37EEC00AC0E710EE103A03F1004355
:1025600000EE103AB9E7022C08D80D4B03EB8403B8
:1025700093ED000AB1E79FED030AAEE79FED090A6C
:10258000ABE700BF000000002EBDBB33DB0F4940AE
:10259000DB0F49C0DB0FC93FDB0FC9BFE0290008D3
:1025A000EC290008DB0F493F38B510EE105A25F032
:1025B0000044B4F1A14FF0EE407A0DD3B4F1FF4FD7
:1025C0005BD8DFED517A9FED517A002DCCBFB0EE94
:1025D000470AB0EE670A38BD4D4B9C425CD8B4F157
:1025E000445F4DD34FF0FF3327EEA76A9FED495A62
:1025F0009FED497ADFED495ADFED494A66EE066AFA
:102600005A1CA6EE857AE6EEA54A9FED465ADFED06
:10261000465AA7EE265AE4EEA65A9FED447ADFED1D
:10262000444AA5EE267AE5EEA64A9FED425ADFED32
:10263000425AA7EE265A9FED417AA4EEA67AE5EE1D
:10264000265A27EE267AA5EE867A27EE877A38D0A4
:102650003B493C4A01EB8301D1ED006A37EE667AD3
:1026600002EB8303D3ED006A37EE677A002D36EE76
:10267000C70AB0DAB1EE400A38BD30EE000A38BD04
:102680009FED317A30EE077AF7EE006AB4EEE67A23
:10269000F1EE10FAA6DD38BD00F05CF82B4B9C4241
:1026A00012D8A3F5D0039C4223D8F0EE007ABFEEF7
:1026B000007AA0EE277A002330EE270AC7EE007AD0
:1026C00092E737EEC70A38BD214B9C420BD8F7EE94
:1026D000087AB7EE007AA0EE277A022330EE670A76
:1026E000C0EE077A80E7BFEE007AC7EE007A0323D8
:1026F0007AE7F7EE007A30EE677A30EE270A0123A8
:10270000C7EE007A70E700BFDB0FC9BFDB0FC93F20
:10271000FFFFDF3ED769853C59DA4B3D21A215BD4D
:102720006BF16EBD356B883D95879DBD6E2EBA3DB4
:10273000388EE3BD2549123EABAAAA3ECDCC4CBE95
:10274000F8290008082A0008CAF24971FFFF973FDC
:10275000FFFF1B4010EE103A23F0004300EE103A4A
:10276000704700BF5645523A2025640043683366DF
:10277000203053203A33000030313233343536378D
:10278000383941424344454600000000303132337D
:10279000343536373839616263646566000000009D
:1027A000503A256400000000523A25640000000001
:1027B0001900500104070001020600000004000394
:1027C00000BD010580DE800200BD01051900C000CA
:1027D00002040001030600000004000300D8B8054D
:1027E000006CDC0200D8B805190050010207000196
:1027F0000506000000050403007A030A80DE80025B
:1028000000BD01051900680102080001050600006D
:10281000000504030095BA0A40A5AE02804A5D0592
:10282000100050010407000102060000000400032C
:1028300000BD010580DE800200BD010508006000CA
:1028400002040001030600000004000300D8B805DC
:10285000006CDC0200D8B80510005001020700012E
:102860000506000000050403007A030A80DE8002EA
:1028700000BD010510006801020800010506000006
:10288000000504030095BA0A40A5AE02804A5D0522
:102890000C005001040700010206000000040003C0
:1028A00000BD010580DE800200BD0105060060005C
:1028B00002040001030600000004000300D8B8056C
:1028C000006CDC0200D8B8050C00500102070001C2
:1028D0000506000000050403007A030A80DE80027A
:1028E00000BD01050C00680102080001050600009A
:1028F000000504030095BA0A40A5AE02804A5D05B2
:102900000800500104070001020600000004000353
:1029100000BD010580DE800200BD010504006000ED
:1029200002040001030600000004000300D8B805FB
:10293000006CDC0200D8B805080050010207000155
:102940000506000000050403007A030A80DE800209
:1029500000BD01050800680102080001050600002D
:10296000000504030095BA0A40A5AE02804A5D0541
:1029700010005001040700000206000000040003DC
:1029800000BD010580DE800200BD01050800600079
:1029900002040000030600000004000300D8B8058C
:1029A000006CDC0200D8B8051000500102070000DE
:1029B0000506000000050403007A030A80DE800299
:1029C00000BD0105100068010208000005060000B6
:1029D000000504030095BA0A40A5AE02804A5D05D1
:1029E00000000080DB0F4940DB0F49C0DB0F49BF0F
:1029F000E4CB1640E4CB16C06937AC3168212233F2
:102A0000B40F14336821A2333863ED3EDA0F493F27
:082A10005E987B3FDA0FC93F1D
:0C2A18000024F4000024F4000024F4006A
:0400000508002109C5
:00000001FF
