:020000040800F2
:1000000000000120610400085F0400085D0400088E
:100010005D0400085D0400085D04000800000000A5
:100020000000000000000000000000005F04000865
:100030005F040008000000005F040008BD01000824
:100040005D0400085D0400085D0400085D0400080C
:100050005D0400085D0400085D0400085D040008FC
:100060005D0400085D0400085D0400085D040008EC
:100070005D0400085D0400085D0400085D040008DC
:100080005D0400085D0400085D0400085D040008CC
:100090005D0400085D0400085D0400085D040008BC
:1000A0005D0400085D0400085D0400085D040008AC
:1000B0005D0400085D0400085D0400085D0400089C
:1000C0005D0400085D0400085D0400085D0400088C
:1000D0005D0400085D0400085D0400085D0400087C
:1000E0005D0400085D0400085D0400085D0400086C
:1000F0005D0400085D0400085D0400085D0400085C
:100100005D0400085D0400085D0400085D0400084B
:100110005D0400085D0400085D0400085D0400083B
:100120005D0400085D0400085D0400085D0400082B
:100130005D0400085D0400085D0400085D0400081B
:100140005D0400085D0400085D0400085D0400080B
:100150005D0400085D0400085D0400085D040008FB
:100160005D0400085D0400085D0400085D040008EB
:100170005D0400085D0400085D0400085D040008DB
:100180005D0400085D0400085D0400085D040008CB
:100190005D0400085D0400085D0400085D040008BB
:1001A0005D0400085D0400085D040008704700BF9E
:1001B000704700BF704700BF704700BF024A136816
:1001C00001331360704700BF0000002008B540F203
:1001D000036000F0CAF84FF47A5000F091F904205F
:1001E00000F0A0F900F0D2F900F0C2F940F202608C
:1001F00000F0BBF80F48104C4FF4005300220121CF
:1002000000F03AF8226802F57A7223689A42FCD824
:1002100008484FF4005100F019F8226802F5FA621C
:1002200023689A42FCD803484FF4005100F00EF8BE
:10023000E8E700BF0008024000000020816170472D
:10024000090481617047006908407047436901EA09
:10025000030221EA030141EA02418161704700691A
:1002600080B270474161704741F48033C361C1611E
:10027000C361C369C36970472DE9F0410568C4686B
:1002800000264FF0030E43FA06F7FF070DD577005F
:100290000EFA07FC01FA07F825EA0C0524EA0C041B
:1002A00002FA07F748EA05053C430136102EEAD169
:1002B0000560C460BDE8F081012941680CBF1943A5
:1002C0009943F0B5416081680024032643FA04F5A0
:1002D000ED0707D5650006FA05F721EA070102FADE
:1002E00005F529430134102CF0D18160F0BDF0B543
:1002F000066A456A00234FF00F0C42FA03F4E70741
:1003000007D59C000CFA04F726EA070601FA04F464
:1003100026430133082BF0D100234FF00F0C03F1DB
:10032000080442FA04F4E40707D59C000CFA04F729
:1003300025EA070501FA04F425430133082BEED121
:1003400006624562F0BD03680B43036070470368B3
:1003500023EA010303607047036819430160704793
:10036000036823EA010303607047430903F18043F4
:1003700003F50E3300F01F001968012282400A4382
:100380001A607047430903F1804303F50E3300F010
:100390001F001A680121814022EA01021A60704799
:1003A000430903F1804303F50E3300F01F00196881
:1003B0000122824011431960196821EA02021A6081
:1003C0007047FFF7D2BFFFF7DDBF0000044AD2F845
:1003D000083823F4C00343EA4053C2F80838704792
:1003E00000300240032802D0052808D07047084A90
:1003F000D2F8003843F48023C2F800387047044A2A
:10040000D2F8703843F00403C2F87038704700BF68
:1004100000300240032802D0052808D07047084A5F
:10042000D2F8003823F48023C2F800387047044A19
:10043000D2F8703823F00403C2F87038704700BF58
:1004400000300240072803464FF0010005D90B2B6E
:1004500094BF073B063B984080B27047FEE7704769
:1004600038B51D4A1D4B1E498B4220D31D4A002121
:10047000934221D34FF0E0231B4CD3F8142D1B4D96
:1004800042F40072C3F8142DD3F8882D42F47002A0
:10049000C3F8882DAC4212D3154C164DAC4212D382
:1004A000FFF794FE144C154DAC4210D338BD52F8F2
:1004B000040B43F8040BD7E743F8041BD8E754F8C0
:1004C000043B9847E6E754F8043B9847E6E754F8BE
:1004D000043B9847E8E700BFE8050008000000205B
:1004E0000000002004000020E8050008E8050008DE
:1004F000E8050008E8050008E8050008E805000828
:100500004FF0E02320F07F40586170474FF0E02328
:10051000586920F07F4070474FF0E023986920F041
:100520007F4070474FF0E02200F00400136923F091
:10053000040303431361704708B5B1FBF0F10B4BA3
:10054000994210D86FF07F43994226BFC908002016
:100550000420FFF7E7FF01394FF0E02321F07F414E
:100560005961012008BD0020FCE700BFF7FFFF072D
:100570004FF0E022136943F00203136170474FF01C
:10058000E022136923F00203136170474FF0E02269
:10059000136943F00103136170474FF0E0221369C0
:1005A00023F00103136170474FF0E0231869C0F393
:1005B000004070474FF0E02300229A6170474FF0EF
:1005C000E023D86920F07F40704700001000500100
:1005D00004070000020600000004000300BD01053E
:0805E00080DE800200BD010570
:04000005080004618A
:00000001FF
