:020000040800F2
:1000000000000120311100082F1100082D110008F7
:100010002D1100082D1100082D110008000000000E
:100020000000000000000000000000002F11000888
:100030002F110008000000002F110008CD0100085A
:100040002D1100082D1100082D1100082D11000898
:100050002D1100082D1100082D1100082D11000888
:100060002D1100082D1100082D1100082D11000878
:100070002D1100082D1100082D1100082D11000868
:100080002D1100082D1100082D1100082D11000858
:100090002D1100082D1100082D1100082D11000848
:1000A0002D1100082D1100082D1100082D11000838
:1000B000DD0100082D1100082D1100082D11000888
:1000C0002D1100082D1100082D1100082D11000818
:1000D0002D1100082D1100082D1100082D11000808
:1000E000F90100082D1100082D1100082D1100083C
:1000F0002D1100082D1100082D1100082D110008E8
:100100002D1100082D1100082D1100082D110008D7
:100110002D1100082D1100082D1100082D110008C7
:100120002D1100082D1100082D1100082D110008B7
:100130002D1100082D1100082D1100082D110008A7
:100140002D1100082D1100082D1100082D11000897
:100150002D1100082D1100082D1100082D11000887
:100160002D1100082D1100082D1100082D11000877
:100170002D1100082D1100082D1100082D11000867
:100180002D1100082D1100082D1100082D11000857
:100190002D1100082D1100082D1100082D11000847
:1001A0002D1100082D1100082D11000808B5064872
:1001B00001F00EF8042001F01DF801F04FF8BDE841
:1001C000084001F03DB800BF20480100024A136812
:1001D00001331360704700BF0C00002008B572B6F1
:1001E000032000F0C6F94FF08042136923F00103A9
:1001F000136162B608BD00BFF0B585B072B6364D6A
:1002000001240DF10F063B22CDE9006423468DF851
:100210000E2028460DF10E02682100F03AFB3C2129
:10022000CDE900649DF80F708DF80E1023460DF196
:100230000E022846682100F02CFB9DF80F30274A5B
:100240003F023B43CDE9006413803D238DF80E301F
:100250000DF10E0223462846682100F01AFB3E21CC
:10026000CDE900649DF80F708DF80E1023460DF156
:100270000E022846682100F00CFB9DF80F30184A4A
:100280003F023B43CDE9006413803F238DF80E30DD
:100290000DF10E0223462846682100F0FAFA9DF877
:1002A0000F100096019423460DF10E020C02402619
:1002B000284668218DF80E6000F0EBFA9DF80F30AB
:1002C00008494FF0804223430B80136923F0010358
:1002D000136162B605B0F0BD005400401E0000205E
:1002E0001C0000201A00002000B55F4885B000F017
:1002F00069FEFFF75BFFFFF759FF40F2026000F075
:1003000051FB5A484FF400530022012100F0CEF96E
:1003100056484FF400430022012100F0C7F94FF482
:10032000804300225148012100F0C0F94FF4804180
:100330004E4800F0A5F94C4800F044FEFFF736FFA8
:100340001C2000F0ABFF01211C2000F0F7FF4FF450
:10035000006000F027FB4FF0804301254FF42F6130
:100360004FF47A725D629962DA62DA6840482A4331
:10037000DA601A682A4300241A6003A94FF47F4305
:100380000322ADF80C30FF268DF80E4000F080F807
:100390003848ADF80C60032203A98DF80E4000F038
:1003A00077F8032203A93448ADF80C408DF80E60AD
:1003B00000F06EF840F2016000F0F4FAC0232A4623
:1003C0002E482A4E022100F071F9C02204212B4848
:1003D00000F0A7F940F6150000F0E4FA284800F014
:1003E000D1F9284BDFED286AD3ED007A2448F8EEE6
:1003F000677A294687EEA67A1F4DFCEEC77A17EE7C
:10040000902A00F0A0FA1E4800F0B7F940F27510EB
:10041000CDE90044ADF80C00022319481B4C03AA97
:10042000682100F036FA4FF40051304600F028F908
:100430000F49032203A800F02BF80E490322C81E1F
:1004400000F026F80B480322294600F021F8032289
:1004500003A9284600F01CF8226802F57A72236886
:100460009A42FCD8DFE700BF0815000800080240E8
:10047000100000201300002016000020000402409D
:100480000054004004000020002474490C000020A7
:100490008AB1531E052B03D94B1CC31A022B0BD850
:1004A0000A4401380139013A11F8013F00F8013FCF
:1004B0009142F9D17047704710B522F003040B4602
:1004C00084460C4453F804EB4CF804EBA342F9D1F6
:1004D000940722F003030DD0CC5CC4545C1CA242F0
:1004E00008D9023311F804C000F804C09A4201D9B7
:1004F000CA5CC25410BD00BF32B3531E022B24D9B4
:100500004FF0000C61F3070C61F30F2C00B561F3A1
:10051000174C22F0030E61F31F6C0346864443F828
:1005200004CB7345FBD193070CD022F0030303F1F6
:10053000010C6245C15405D902339A4200F80C10EF
:1005400088BFC1545DF804FB7047002303F1010C20
:100550006245C154F8D902339A4200F80C10F3D91D
:10056000C1547047013FFDD170476F6957406F61BB
:10057000F8BDF8B51F4D204F80B40321484300213A
:100580004FF480444BF6FF7380BC7E5880B440B477
:1005900008220727FFF7E6FFC04602E00B27FFF718
:1005A000E1FF013A6F6927436F61012740BC40B406
:1005B000D6403740002F07D01B27FFF7D3FFC04698
:1005C0006F691F406F610CE0C0460A27FFF7CAFF42
:1005D0006F691F406F611427C046FFF7C3FFC04615
:1005E000C046002ADAD140BC01318142CCD180BC66
:1005F000F8BD00000008024010000020036843F02E
:1006000001030360704700BF036823F00103036028
:10061000704700BF074AD2F8043423F03F0343F089
:100620000A034CF219019BB2C2F81C14C2F804343C
:10063000704700BF005000400849D1F80024D1F8AD
:10064000203422F4704223F07F4342F4204243F0EE
:100650008843C1F80024C1F82034704700000240EC
:10066000024B0022C3F82424704700BF0050004012
:1006700081617047090481617047006908407047D3
:10068000436901EA030221EA030141EA024181616F
:100690007047006980B270474161704741F4803310
:1006A000C361C161C361C369C36970472DE9F0418A
:1006B0000568C46800264FF0030E43FA06F7FF07EB
:1006C0000DD577000EFA07FC01FA07F825EA0C05AC
:1006D00024EA0C0402FA07F748EA05053C43013610
:1006E000102EEAD10560C460BDE8F081012941689F
:1006F0000CBF19439943F0B541608168002403267B
:1007000043FA04F5ED0707D5650006FA05F721EA77
:10071000070102FA05F529430134102CF0D181605C
:10072000F0BDF0B5066A456A00234FF00F0C42FA9F
:1007300003F4E70707D59C000CFA04F726EA07063E
:1007400001FA04F426430133082BF0D100234FF0C3
:100750000F0C03F1080442FA04F4E40707D59C00E7
:100760000CFA04F725EA070501FA04F425430133DE
:10077000082BEED106624562F0BD036843F0010329
:1007800003607047036823F0010303607047036848
:1007900043F4807303607047036843F4007303609D
:1007A0007047036823F4007303607047490041F405
:1007B00080418160704741F4004181607047490089
:1007C000C1607047C36843F00103C3607047C368EA
:1007D00023F00103C3607047436823F03F039BB2DB
:1007E00019434160704701617047C36943F4004396
:1007F000C3617047C36923F40043C3617047C36991
:1008000003F470430B43C36170470162704742EACF
:100810004102D2B2026170470069C0B270474368BA
:100820000B4343607047436823EA0103436070470A
:10083000036843F4806303607047036823F48063B4
:1008400003607047036843F4006303607047036804
:1008500023F4006303607047C36919B923F480432C
:10086000C361704743F48043FAE7436843F400638D
:1008700043607047436823F40063436070474368F4
:1008800043F4805343607047436823F480534360CC
:1008900070472DE9F0411C46DDE9066533B38369F5
:1008A0009F0700F11808FAD4FFF771FF4369DB07CF
:1008B00000F11407FAD5D8F80030DB07F6D5D8F8E0
:1008C00000309B07F2D54B00DBB200F1100C036146
:1008D0003B689B07FCD58369144412F8013BCCF8B4
:1008E00000303B685B07FCD5A242F6D13DB3FFF771
:1008F0004EFFFFF79DFF4369DA0700F11404FAD5B4
:100900008369DB07F7D583699F07F4D5490041F078
:100910000101C9B200F11007016123689A07FCD5F3
:1009200083690022691E8A4201D1FFF786FF23688E
:100930005B06FCD53B68B35401329542F3D1BDE868
:10094000F041FFF729BFF8B50F4694B2D1B2FFF7D7
:1009500043FF661C012F0546B6B20BD1FFF745FFDA
:1009600002EB82020623B2FBF3F189B2FFF747FFE5
:100970002E62F8BD04EB8404FFF73CFFA1B2F5E75B
:1009800003680B4303607047036823EA01030360B5
:1009900070470368194301607047036823EA010345
:1009A00003607047430903F1804303F50E3300F001
:1009B0001F001968012282400A431A6070474309E8
:1009C00003F1804303F50E3300F01F001A68012184
:1009D000814022EA01021A607047430903F1804313
:1009E00003F50E3300F01F00196801228240114305
:1009F0001960196821EA02021A607047FFF7D2BF36
:100A0000FFF7DDBF044AD2F8083823F4C00343EAF5
:100A10004053C2F80838704700300240032802D023
:100A2000052808D07047084AD2F8003843F48023DC
:100A3000C2F800387047044AD2F8703843F0040313
:100A4000C2F87038704700BF00300240032802D05F
:100A5000052808D07047084AD2F8003823F48023CC
:100A6000C2F800387047044AD2F8703823F0040303
:100A7000C2F87038704700BF0030024007280346B4
:100A80004FF0010005D90B2B94BF073B063B984064
:100A900080B2704706280CD8DFE800F004242A0C46
:100AA00012181E00154AD2F80C3843F48013C2F80D
:100AB0000C387047114AD2F80C3843F40023F6E79B
:100AC0000E4AD2F80C3843F48023F0E70B4AD2F8F0
:100AD0000C3843F40033EAE7084AD2F80C3843F400
:100AE0008033E4E7054AD2F80C3843F48003DEE7AC
:100AF000024AD2F80C3843F40013D8E70030024021
:100B000006280CD8DFE800F004242A0C12181E0076
:100B1000154AD2F80C3843F48053C2F80C387047A9
:100B2000114AD2F80C3843F40063F6E70E4AD2F8C3
:100B30000C3843F48063F0E70B4AD2F80C3843F4E6
:100B40000073EAE7084AD2F80C3843F48073E4E70C
:100B5000054AD2F80C3843F48043DEE7024AD2F863
:100B60000C3843F40053D8E70030024006280CD874
:100B7000DFE800F004242A0C12181E00154AD2F8EF
:100B80000C3823F48053C2F80C387047114AD2F85D
:100B90000C3823F40063F6E70E4AD2F80C3823F43D
:100BA0008063F0E70B4AD2F80C3823F40073EAE7CD
:100BB000084AD2F80C3823F48073E4E7054AD2F8E7
:100BC0000C3823F48043DEE7024AD2F80C3823F4D1
:100BD0000053D8E70030024006282FD8DFE800F0A5
:100BE0000422280A10161C00154BD3F80C08C0F379
:100BF00000107047124BD3F80C08C0F3C0007047C8
:100C00000F4BD3F80C08C0F3800070470C4BD3F89F
:100C10000C08C0F340007047094BD3F80C0800F0F3
:100C200001007047064BD3F80C08C0F380107047E2
:100C3000034BD3F80C08C0F34010704700207047F6
:100C400000300240034AD2F80C3843F40003C2F8E3
:100C50000C38704700300240024BD3F80C08C0F348
:100C6000C01070470030024006282BD8DFE800F0A3
:100C7000041E240A10161A00134BD3F80008C0F300
:100C800040607047104BD3F80008C0F340407047F5
:100C90000D4BD3F80008C0F3400070470A4BD3F85F
:100CA0007008F8E7084BD3F87408F4E7064BD3F85C
:100CB0000008C0F340707047034BD3F80008C0F33E
:100CC000C0607047002070470030024008B50246FF
:100CD0001046FFF7C9FF0028FAD008BD032807D146
:100CE0000D4AD2F80838C3F38103012BF9D17047BC
:100CF000042806D1084AD2F8083813F00C0FFAD1AC
:100D000070470028FCD1044AD2F80838C3F38103A5
:100D1000022BF9D1704700BF0030024006280CD8E2
:100D2000DFE800F004282E0C12182000174AD2F831
:100D3000003843F08073C2F800387047134AD2F885
:100D4000003843F48033F6E7104AD2F8003843F015
:100D50000103F0E70D4AD2F8703843F00103C2F8FE
:100D600070387047094AD2F8743843F00103C2F86A
:100D700074387047054AD2F8003843F08053DAE7F8
:100D8000024AD2F8003843F08063D4E700300240D2
:100D900006280CD8DFE800F004282E0C12182000DA
:100DA000174AD2F8003823F08073C2F80038704731
:100DB000134AD2F8003823F48033F6E7104AD2F809
:100DC000003823F00103F0E70D4AD2F8703823F021
:100DD0000103C2F870387047094AD2F8743823F01A
:100DE0000103C2F874387047054AD2F8003823F07E
:100DF0008053DAE7024AD2F8003823F08063D4E760
:100E000000300240034AD2F8003843F40023C2F80D
:100E10000038704700300240034AD2F8003823F40B
:100E20000023C2F8003870470030024047F6C07314
:100E30000907044A03EA801301F0E0410B43C2F8BA
:100E4000843870470030024012061B0703F0E0436D
:100E500002F0706209041A4301F4403147F6C0738E
:100E600003EA80130A431A43014BC3F888287047EA
:100E700000300240084AD2F88C3823F07F4323F434
:100E80007C03090423F4604341EA002123F0FF03BB
:100E90001943C2F88C18704700300240044AD2F857
:100EA000083823F003030343C2F80838704700BF33
:100EB00000300240044AD2F8043823F4800343EAA5
:100EC0008053C2F80438704700300240044AD2F818
:100ED000083823F4604343EA4033C2F808387047C7
:100EE00000300240044AD2F8083823F4E05343EAC1
:100EF0008023C2F80838704700300240044AD2F814
:100F0000083823F0F00343EA0013C2F808387047AA
:100F100000300240044AD2F8083823F4F81343EAB8
:100F20000043C2F8083870470030024010B547F659
:100F3000C07404EA811400F03F001B0603F07063E4
:100F400004431C43029B5208022B02F1FF324FEA7A
:100F5000024238BF022302F440321B0703F0E04391
:100F600014431C43014BC3F8044810BD0030024039
:100F700010B5029C022C38BF022424071B0603F084
:100F8000706304F0E04452081C4300F03F0047F651
:100F9000C073013A03EA8113044312041C4302F4B0
:100FA0004032034B144344F48004C3F8044810BD9A
:100FB00000300240024BD3F80808C0F381007047AC
:100FC0000030024037B504460420FFF7A7FEFFF7C4
:100FD0007DFE0020FFF762FFE379012B04D103209F
:100FE000FFF79CFEFFF772FE40F61C00FFF7DAFCED
:100FF000E07B00F037FA207BFFF780FF607BFFF794
:1010000071FFA07BFFF762FF0020FFF7C1FEE379CD
:10101000A579227961882078012B637900952FD1F9
:10102000FFF7A6FF0020FFF779FEFFF74FFEA3684A
:101030005A0528D500F0DAF9A3689B0526D500F0FB
:10104000E9F9A06800F0B8F90220FFF727FF124A7B
:10105000D2F80838C3F38103022BF9D10F4B226970
:101060001A600F4B62691A600E4BA2691A60E3792D
:10107000012B0ED1042003B0BDE83040FFF788BE3D
:10108000FFF754FFCEE700F0BBF9D5E700F0CCF94D
:10109000D7E703B030BD00BF003002400800002099
:1010A0000400002000000020FFF78CBF044B20F458
:1010B000806098420CBF034B034B1868704700BF19
:1010C000001001400000002004000020094B00F146
:1010D0004040B0F5005FD3F8083806D8064A1068DB
:1010E00013F4E05F18BF40007047044A13F4604FE8
:1010F0001068F7E7003002400400002000000020E4
:10110000014B1868704700BF04000020044B20F416
:10111000806098420CBF034B034B1868704700BFB8
:10112000003800400400002000000020FEE7704767
:1011300038B51D4A1D4B1E498B4220D31D4A002144
:10114000934221D34FF0E0231B4CD3F8142D1B4DB9
:1011500042F40072C3F8142DD3F8882D42F47002C3
:10116000C3F8882DAC4212D3154C164DAC4212D3A5
:10117000FFF7BAF8144C154DAC4210D338BD52F8F5
:10118000040B43F8040BD7E743F8041BD8E754F8E3
:10119000043B9847E6E754F8043B9847E6E754F8E1
:1011A000043B9847E8E700BFC8160008000000208D
:1011B0000C00002020000020C8160008C8160008F7
:1011C000C8160008C8160008C8160008C816000887
:1011D0004FF0E02320F07F40586170474FF0E0234C
:1011E000586920F07F4070474FF0E023986920F065
:1011F0007F4070474FF0E02200F00400136923F0B5
:10120000040303431361704708B5B1FBF0F10B4BC6
:10121000994210D86FF07F43994226BFC908002039
:101220000420FFF7E7FF01394FF0E02321F07F4171
:101230005961012008BD0020FCE700BFF7FFFF0750
:101240004FF0E022136943F00203136170474FF03F
:10125000E022136923F00203136170474FF0E0228C
:10126000136943F00103136170474FF0E0221369E3
:1012700023F00103136170474FF0E0231869C0F3B6
:10128000004070474FF0E02300229A6170474FF012
:10129000E023D86920F07F4070470000044B4209EA
:1012A00003EB820300F01F00012282401A607047A6
:1012B00000E100E0044B420903EB820300F01F0051
:1012C000012282401A60704780E100E0064B42092B
:1012D00003EB820300F01F001A68012383401342CE
:1012E00014BF01200020704700E200E0044B4209D7
:1012F00003EB820300F01F00012282401A60704756
:1013000000E200E0044B420903EB820300F01F00FF
:10131000012282401A60704780E200E0064B4209D9
:1013200003EB820300F01F001A680123834013427D
:1013300014BF01200020704700E100E05A2893BF4D
:1013400000F16040044B00F00F0000F564408CBFDA
:10135000C1540170704700BF14ED00E0064B420914
:1013600003EB820300F01F001A680123834013423D
:1013700014BF01200020704700E300E0EF289FBF6A
:101380004FF0E023D3F8002F1043C3F8000F70474D
:10139000034AD2F8003C43F48073C2F8003C704723
:1013A00000300240034AD2F8003C23F48073C2F8B4
:1013B000003C704700300240044AD2F8003C23F061
:1013C0000F030343C2F8003C704700BF00300240E7
:1013D000044B054AC3F8082C02F14432C3F8082C28
:1013E000704700BF003002403B2A1908034AD2F878
:1013F000003C43F48063C2F8003C70470030024078
:10140000034AD2F8003C23F48063C2F8003C7047E2
:1014100000300240034AD2F8003C43F40073C2F8A3
:10142000003C704700300240034AD2F8003C23F4ED
:101430000073C2F8003C704700300240034AD2F803
:10144000003C43F48053C2F8003C70470030024037
:10145000034AD2F8003C43F40063C2F8003C7047F2
:1014600000300240044A1368800323F4404380B2F2
:1014700018431060704700BF007000401900500111
:1014800004070001000700000004000300BD01057F
:1014900080DE800200BD0105190050010407000133
:1014A000020600000004000300BD010580DE80028A
:1014B00000BD01051900C000020400010306000080
:1014C0000004000300D8B805006CDC0200D8B805A1
:1014D0001900500102070001050600000005040381
:1014E000007A030A80DE800200BD01051900680150
:1014F0000208000105060000000504030095BA0A71
:1015000040A5AE02804A5D051000500104070001AD
:10151000020600000004000300BD010580DE800219
:1015200000BD010508006000020400010306000080
:101530000004000300D8B805006CDC0200D8B80530
:101540001000500102070001050600000005040319
:10155000007A030A80DE800200BD010510006801E8
:101560000208000105060000000504030095BA0A00
:1015700040A5AE02804A5D050C0050010407000141
:10158000020600000004000300BD010580DE8002A9
:1015900000BD010506006000020400010306000012
:1015A0000004000300D8B805006CDC0200D8B805C0
:1015B0000C005001020700010506000000050403AD
:1015C000007A030A80DE800200BD01050C0068017C
:1015D0000208000105060000000504030095BA0A90
:1015E00040A5AE02804A5D050800500104070001D5
:1015F000020600000004000300BD010580DE800239
:1016000000BD0105040060000204000103060000A3
:101610000004000300D8B805006CDC0200D8B8054F
:101620000800500102070001050600000005040340
:10163000007A030A80DE800200BD0105080068010F
:101640000208000105060000000504030095BA0A1F
:1016500040A5AE02804A5D0510005001040700005D
:10166000020600000004000300BD010580DE8002C8
:1016700000BD010508006000020400000306000030
:101680000004000300D8B805006CDC0200D8B805DF
:1016900010005001020700000506000000050403C9
:1016A000007A030A80DE800200BD01051000680197
:1016B0000208000005060000000504030095BA0AB0
:0816C00040A5AE02804A5D0561
:0C16C8000024F4000024F4000024F400CE
:0400000508001131AD
:00000001FF
